{
  "contractName": "CheersContract",
  "abi": [
    {
      "constant": true,
      "inputs": [],
      "name": "getCompensation",
      "outputs": [
        {
          "name": "",
          "type": "uint256"
        }
      ],
      "payable": false,
      "stateMutability": "view",
      "type": "function"
    },
    {
      "constant": false,
      "inputs": [
        {
          "name": "candidate",
          "type": "address"
        }
      ],
      "name": "addCandidate",
      "outputs": [
        {
          "name": "",
          "type": "bool"
        }
      ],
      "payable": false,
      "stateMutability": "nonpayable",
      "type": "function"
    },
    {
      "constant": false,
      "inputs": [],
      "name": "kill",
      "outputs": [],
      "payable": false,
      "stateMutability": "nonpayable",
      "type": "function"
    },
    {
      "constant": true,
      "inputs": [],
      "name": "isOpen",
      "outputs": [
        {
          "name": "",
          "type": "bool"
        }
      ],
      "payable": false,
      "stateMutability": "view",
      "type": "function"
    },
    {
      "constant": true,
      "inputs": [],
      "name": "activity",
      "outputs": [
        {
          "name": "",
          "type": "uint8"
        }
      ],
      "payable": false,
      "stateMutability": "view",
      "type": "function"
    },
    {
      "constant": true,
      "inputs": [],
      "name": "maxCandidates",
      "outputs": [
        {
          "name": "",
          "type": "uint256"
        }
      ],
      "payable": false,
      "stateMutability": "view",
      "type": "function"
    },
    {
      "constant": false,
      "inputs": [],
      "name": "cashOut",
      "outputs": [
        {
          "name": "",
          "type": "bool"
        }
      ],
      "payable": false,
      "stateMutability": "nonpayable",
      "type": "function"
    },
    {
      "constant": false,
      "inputs": [
        {
          "name": "_activity",
          "type": "uint8"
        }
      ],
      "name": "setActivity",
      "outputs": [],
      "payable": false,
      "stateMutability": "nonpayable",
      "type": "function"
    },
    {
      "constant": false,
      "inputs": [],
      "name": "addAmount",
      "outputs": [],
      "payable": true,
      "stateMutability": "payable",
      "type": "function"
    },
    {
      "constant": true,
      "inputs": [],
      "name": "firstContactBudget",
      "outputs": [
        {
          "name": "",
          "type": "uint256"
        }
      ],
      "payable": false,
      "stateMutability": "view",
      "type": "function"
    },
    {
      "constant": true,
      "inputs": [],
      "name": "spender",
      "outputs": [
        {
          "name": "",
          "type": "address"
        }
      ],
      "payable": false,
      "stateMutability": "view",
      "type": "function"
    },
    {
      "constant": false,
      "inputs": [
        {
          "name": "_profiteer",
          "type": "address"
        }
      ],
      "name": "addProfiteer",
      "outputs": [],
      "payable": false,
      "stateMutability": "nonpayable",
      "type": "function"
    },
    {
      "inputs": [
        {
          "name": "_maxCandidates",
          "type": "uint256"
        },
        {
          "name": "_firstContactReward",
          "type": "uint256"
        },
        {
          "name": "_activity",
          "type": "uint8"
        }
      ],
      "payable": true,
      "stateMutability": "payable",
      "type": "constructor"
    }
  ],
  "bytecode": "0x6060604052604051606080610c8a833981016040528080519060200190919080519060200190919080519060200190919050506000831480610042575082820234115b151561004d57600080fd5b336000806101000a81548173ffffffffffffffffffffffffffffffffffffffff021916908373ffffffffffffffffffffffffffffffffffffffff1602179055508260068190555082820260078190555080600560006101000a81548160ff021916908360028111156100bb57fe5b0217905550505050610bb8806100d26000396000f3006060604052600436106100ba576000357c0100000000000000000000000000000000000000000000000000000000900463ffffffff168063076aa026146100bf5780633acd75f8146100e857806341c0e1b51461013957806347535d7b1461014e5780635d9c7a161461017b57806365af2ac8146101b2578063793cd71e146101db57806384cd45d014610208578063b9c145771461022e578063d451cfcf14610238578063e8edc81614610261578063f18f4001146102b6575b600080fd5b34156100ca57600080fd5b6100d26102ef565b6040518082815260200191505060405180910390f35b34156100f357600080fd5b61011f600480803573ffffffffffffffffffffffffffffffffffffffff16906020019091905050610312565b604051808215151515815260200191505060405180910390f35b341561014457600080fd5b61014c6104ec565b005b341561015957600080fd5b610161610581565b604051808215151515815260200191505060405180910390f35b341561018657600080fd5b61018e610599565b6040518082600281111561019e57fe5b60ff16815260200191505060405180910390f35b34156101bd57600080fd5b6101c56105ac565b6040518082815260200191505060405180910390f35b34156101e657600080fd5b6101ee6105b2565b604051808215151515815260200191505060405180910390f35b341561021357600080fd5b61022c600480803560ff1690602001909190505061084d565b005b6102366108ce565b005b341561024357600080fd5b61024b61092b565b6040518082815260200191505060405180910390f35b341561026c57600080fd5b610274610931565b604051808273ffffffffffffffffffffffffffffffffffffffff1673ffffffffffffffffffffffffffffffffffffffff16815260200191505060405180910390f35b34156102c157600080fd5b6102ed600480803573ffffffffffffffffffffffffffffffffffffffff16906020019091905050610956565b005b60006007543073ffffffffffffffffffffffffffffffffffffffff163103905090565b60008060009054906101000a900473ffffffffffffffffffffffffffffffffffffffff1673ffffffffffffffffffffffffffffffffffffffff168273ffffffffffffffffffffffffffffffffffffffff161415151561037057600080fd5b610378610581565b151561038357600080fd5b6000600460008473ffffffffffffffffffffffffffffffffffffffff1673ffffffffffffffffffffffffffffffffffffffff16815260200190815260200160002060009054906101000a900460ff1660ff161415156103e157600080fd5b600180548060010182816103f59190610b3b565b9160005260206000209001600084909190916101000a81548173ffffffffffffffffffffffffffffffffffffffff021916908373ffffffffffffffffffffffffffffffffffffffff160217905550506001600460008473ffffffffffffffffffffffffffffffffffffffff1673ffffffffffffffffffffffffffffffffffffffff16815260200190815260200160002060006101000a81548160ff021916908360ff1602179055508173ffffffffffffffffffffffffffffffffffffffff166108fc655af3107a40009081150290604051600060405180830381858888f1935050505015156104e357600080fd5b60019050919050565b6000809054906101000a900473ffffffffffffffffffffffffffffffffffffffff1673ffffffffffffffffffffffffffffffffffffffff163373ffffffffffffffffffffffffffffffffffffffff1614151561054757600080fd5b6000809054906101000a900473ffffffffffffffffffffffffffffffffffffffff1673ffffffffffffffffffffffffffffffffffffffff16ff5b60006006546002805490506001805490500110905090565b600560009054906101000a900460ff1681565b60065481565b60008060008060009054906101000a900473ffffffffffffffffffffffffffffffffffffffff1673ffffffffffffffffffffffffffffffffffffffff163373ffffffffffffffffffffffffffffffffffffffff1614151561061257600080fd5b6002805490509150600090505b6002805490508110156108345760028181548110151561063b57fe5b906000526020600020900160009054906101000a900473ffffffffffffffffffffffffffffffffffffffff1673ffffffffffffffffffffffffffffffffffffffff166108fc60065461068b6102ef565b81151561069457fe5b049081150290604051600060405180830381858888f1935050505015156106ba57600080fd5b600380548060010182816106ce9190610b3b565b916000526020600020900160006002848154811015156106ea57fe5b906000526020600020900160009054906101000a900473ffffffffffffffffffffffffffffffffffffffff16909190916101000a81548173ffffffffffffffffffffffffffffffffffffffff021916908373ffffffffffffffffffffffffffffffffffffffff1602179055505060036004600060028481548110151561076c57fe5b906000526020600020900160009054906101000a900473ffffffffffffffffffffffffffffffffffffffff1673ffffffffffffffffffffffffffffffffffffffff1673ffffffffffffffffffffffffffffffffffffffff16815260200190815260200160002060006101000a81548160ff021916908360ff1602179055506002818154811015156107f957fe5b906000526020600020900160006101000a81549073ffffffffffffffffffffffffffffffffffffffff0219169055808060010191505061061f565b8160066000828254039250508190555060019250505090565b6000809054906101000a900473ffffffffffffffffffffffffffffffffffffffff1673ffffffffffffffffffffffffffffffffffffffff163373ffffffffffffffffffffffffffffffffffffffff161415156108a857600080fd5b80600560006101000a81548160ff021916908360028111156108c657fe5b021790555050565b6000809054906101000a900473ffffffffffffffffffffffffffffffffffffffff1673ffffffffffffffffffffffffffffffffffffffff163373ffffffffffffffffffffffffffffffffffffffff1614151561092957600080fd5b565b60075481565b6000809054906101000a900473ffffffffffffffffffffffffffffffffffffffff1681565b6000809054906101000a900473ffffffffffffffffffffffffffffffffffffffff1673ffffffffffffffffffffffffffffffffffffffff163373ffffffffffffffffffffffffffffffffffffffff161415156109b157600080fd5b6109b9610581565b80610a1357506001600460008373ffffffffffffffffffffffffffffffffffffffff1673ffffffffffffffffffffffffffffffffffffffff16815260200190815260200160002060009054906101000a900460ff1660ff16145b1515610a1e57600080fd5b6002600460008373ffffffffffffffffffffffffffffffffffffffff1673ffffffffffffffffffffffffffffffffffffffff16815260200190815260200160002060009054906101000a900460ff1660ff16101515610a7c57600080fd5b60028054806001018281610a909190610b3b565b9160005260206000209001600083909190916101000a81548173ffffffffffffffffffffffffffffffffffffffff021916908373ffffffffffffffffffffffffffffffffffffffff160217905550506002600460008373ffffffffffffffffffffffffffffffffffffffff1673ffffffffffffffffffffffffffffffffffffffff16815260200190815260200160002060006101000a81548160ff021916908360ff16021790555050565b815481835581811511610b6257818360005260206000209182019101610b619190610b67565b5b505050565b610b8991905b80821115610b85576000816000905550600101610b6d565b5090565b905600a165627a7a72305820aa354d67ca5b34ee39cc967b40a0c4453aee56876905377878764c899c109d6f0029",
  "source": "pragma solidity ^0.4.17;\n\ncontract CheersContract {\n\n    enum ActivityType {Drinks, Tickets, Food}\n\n    address public spender;\n\n    address[] candidates;\n\n    address[] profiteers;\n\n    address[] cashedOut;\n\n    mapping (address => uint8) userStates;\n\n    ActivityType public activity;\n\n    uint public maxCandidates;\n\n    uint public firstContactBudget;\n\n    function CheersContract(uint _maxCandidates, uint _firstContactReward, ActivityType _activity) public payable {\n        // msg.value should be more than first contact reward times the candidates maximum\n        require(_maxCandidates == 0 || msg.value > _firstContactReward * _maxCandidates);\n\n        spender = msg.sender;\n        maxCandidates = _maxCandidates;\n        firstContactBudget = _firstContactReward * _maxCandidates;\n        activity = _activity;\n    }\n\n    function getCompensation() constant public returns (uint) {\n        return this.balance - firstContactBudget;\n    }\n\n    function isOpen() constant public returns (bool) {\n        return candidates.length + profiteers.length < maxCandidates;\n    }\n\n    function addAmount() public payable {\n        require(msg.sender == spender);\n    }\n\n    function setActivity(ActivityType _activity) public {\n        require(msg.sender == spender);\n        activity = _activity;\n    }\n\n    function addCandidate(address candidate) public returns (bool){\n        require(candidate != spender);\n        require(isOpen());\n        require(userStates[candidate] == 0);\n\n        candidates.push(candidate);\n        userStates[candidate] = 1;\n        candidate.transfer(1 ether / 10000);\n        return true;\n    }\n\n    function addProfiteer(address _profiteer) public {\n        require(msg.sender == spender);\n        require(isOpen() || userStates[_profiteer] == 1);\n        require(userStates[_profiteer] < 2);\n\n        profiteers.push(_profiteer);\n        userStates[_profiteer] = 2;\n    }\n\n    function cashOut() public returns (bool) {\n        require(msg.sender == spender);\n        uint profiteersLength = profiteers.length;\n        for (uint i = 0; i < profiteers.length; i++) {\n            profiteers[i].transfer(getCompensation() / maxCandidates);\n            cashedOut.push(profiteers[i]);\n            userStates[profiteers[i]] = 3;\n            delete profiteers[i];\n        }\n        maxCandidates -= profiteersLength;\n        return true;\n    }\n\n    function kill() public {\n        require(msg.sender == spender);\n        selfdestruct(spender);\n    }\n}",
  "sourcePath": "/Users/tillkolter/work/me/haello/contracts/CheersContract.sol",
  "compiler": {
    "name": "solc",
    "version": "0.4.18+commit.9cf6e910.Emscripten.clang"
  },
  "schemaVersion": "1.0.1",
  "updatedAt": "2017-12-08T12:22:09.643Z"
}