{
  "contractName": "CheersContract",
  "abi": [
    {
      "constant": true,
      "inputs": [],
      "name": "getCompensation",
      "outputs": [
        {
          "name": "",
          "type": "uint256"
        }
      ],
      "payable": false,
      "stateMutability": "view",
      "type": "function"
    },
    {
      "constant": false,
      "inputs": [
        {
          "name": "candidate",
          "type": "address"
        }
      ],
      "name": "addCandidate",
      "outputs": [],
      "payable": false,
      "stateMutability": "nonpayable",
      "type": "function"
    },
    {
      "constant": false,
      "inputs": [],
      "name": "kill",
      "outputs": [],
      "payable": false,
      "stateMutability": "nonpayable",
      "type": "function"
    },
    {
      "constant": true,
      "inputs": [],
      "name": "isOpen",
      "outputs": [
        {
          "name": "",
          "type": "bool"
        }
      ],
      "payable": false,
      "stateMutability": "view",
      "type": "function"
    },
    {
      "constant": false,
      "inputs": [],
      "name": "cashOut",
      "outputs": [
        {
          "name": "",
          "type": "bool"
        }
      ],
      "payable": false,
      "stateMutability": "nonpayable",
      "type": "function"
    },
    {
      "constant": false,
      "inputs": [
        {
          "name": "_activities",
          "type": "uint8[]"
        }
      ],
      "name": "setActivities",
      "outputs": [],
      "payable": false,
      "stateMutability": "nonpayable",
      "type": "function"
    },
    {
      "constant": false,
      "inputs": [],
      "name": "addAmount",
      "outputs": [],
      "payable": true,
      "stateMutability": "payable",
      "type": "function"
    },
    {
      "constant": false,
      "inputs": [
        {
          "name": "_profiteer",
          "type": "address"
        }
      ],
      "name": "addProfiteer",
      "outputs": [],
      "payable": false,
      "stateMutability": "nonpayable",
      "type": "function"
    },
    {
      "inputs": [
        {
          "name": "_maxCandidates",
          "type": "uint256"
        },
        {
          "name": "_firstContactReward",
          "type": "uint256"
        },
        {
          "name": "_activities",
          "type": "uint8[]"
        }
      ],
      "payable": true,
      "stateMutability": "payable",
      "type": "constructor"
    }
  ],
  "bytecode": "0x6060604052604051610cfb380380610cfb833981016040528080519060200190919080519060200190919080518201919050506000831480610042575082820234115b151561004d57600080fd5b336000806101000a81548173ffffffffffffffffffffffffffffffffffffffff021916908373ffffffffffffffffffffffffffffffffffffffff1602179055508260068190555082820260078190555080600590805190602001906100b39291906100bc565b5050505061019b565b82805482825590600052602060002090601f0160209004810192821561015a5791602002820160005b8382111561012b57835183826101000a81548160ff0219169083600281111561010a57fe5b021790555092602001926001016020816000010492830192600103026100e5565b80156101585782816101000a81549060ff021916905560010160208160000104928301926001030261012b565b505b509050610167919061016b565b5090565b61019891905b8082111561019457600081816101000a81549060ff021916905550600101610171565b5090565b90565b610b51806101aa6000396000f30060606040526004361061008e576000357c0100000000000000000000000000000000000000000000000000000000900463ffffffff168063076aa026146100935780633acd75f8146100bc57806341c0e1b5146100f557806347535d7b1461010a578063793cd71e14610137578063a8f2756214610164578063b9c14577146101be578063f18f4001146101c8575b600080fd5b341561009e57600080fd5b6100a6610201565b6040518082815260200191505060405180910390f35b34156100c757600080fd5b6100f3600480803573ffffffffffffffffffffffffffffffffffffffff16906020019091905050610224565b005b341561010057600080fd5b6101086103f6565b005b341561011557600080fd5b61011d61048b565b604051808215151515815260200191505060405180910390f35b341561014257600080fd5b61014a6104a3565b604051808215151515815260200191505060405180910390f35b341561016f57600080fd5b6101bc60048080359060200190820180359060200190808060200260200160405190810160405280939291908181526020018383602002808284378201915050505050509190505061073e565b005b6101c66107b3565b005b34156101d357600080fd5b6101ff600480803573ffffffffffffffffffffffffffffffffffffffff16906020019091905050610810565b005b60006007543073ffffffffffffffffffffffffffffffffffffffff163103905090565b6000809054906101000a900473ffffffffffffffffffffffffffffffffffffffff1673ffffffffffffffffffffffffffffffffffffffff168173ffffffffffffffffffffffffffffffffffffffff161415151561028057600080fd5b61028861048b565b151561029357600080fd5b6000600460008373ffffffffffffffffffffffffffffffffffffffff1673ffffffffffffffffffffffffffffffffffffffff16815260200190815260200160002060009054906101000a900460ff1660ff161415156102f157600080fd5b6001805480600101828161030591906109f5565b9160005260206000209001600083909190916101000a81548173ffffffffffffffffffffffffffffffffffffffff021916908373ffffffffffffffffffffffffffffffffffffffff160217905550506001600460008373ffffffffffffffffffffffffffffffffffffffff1673ffffffffffffffffffffffffffffffffffffffff16815260200190815260200160002060006101000a81548160ff021916908360ff1602179055508073ffffffffffffffffffffffffffffffffffffffff166108fc655af3107a40009081150290604051600060405180830381858888f1935050505015156103f357600080fd5b50565b6000809054906101000a900473ffffffffffffffffffffffffffffffffffffffff1673ffffffffffffffffffffffffffffffffffffffff163373ffffffffffffffffffffffffffffffffffffffff1614151561045157600080fd5b6000809054906101000a900473ffffffffffffffffffffffffffffffffffffffff1673ffffffffffffffffffffffffffffffffffffffff16ff5b60006006546002805490506001805490500110905090565b60008060008060009054906101000a900473ffffffffffffffffffffffffffffffffffffffff1673ffffffffffffffffffffffffffffffffffffffff163373ffffffffffffffffffffffffffffffffffffffff1614151561050357600080fd5b6002805490509150600090505b6002805490508110156107255760028181548110151561052c57fe5b906000526020600020900160009054906101000a900473ffffffffffffffffffffffffffffffffffffffff1673ffffffffffffffffffffffffffffffffffffffff166108fc60065461057c610201565b81151561058557fe5b049081150290604051600060405180830381858888f1935050505015156105ab57600080fd5b600380548060010182816105bf91906109f5565b916000526020600020900160006002848154811015156105db57fe5b906000526020600020900160009054906101000a900473ffffffffffffffffffffffffffffffffffffffff16909190916101000a81548173ffffffffffffffffffffffffffffffffffffffff021916908373ffffffffffffffffffffffffffffffffffffffff1602179055505060036004600060028481548110151561065d57fe5b906000526020600020900160009054906101000a900473ffffffffffffffffffffffffffffffffffffffff1673ffffffffffffffffffffffffffffffffffffffff1673ffffffffffffffffffffffffffffffffffffffff16815260200190815260200160002060006101000a81548160ff021916908360ff1602179055506002818154811015156106ea57fe5b906000526020600020900160006101000a81549073ffffffffffffffffffffffffffffffffffffffff02191690558080600101915050610510565b8160066000828254039250508190555060019250505090565b6000809054906101000a900473ffffffffffffffffffffffffffffffffffffffff1673ffffffffffffffffffffffffffffffffffffffff163373ffffffffffffffffffffffffffffffffffffffff1614151561079957600080fd5b80600590805190602001906107af929190610a21565b5050565b6000809054906101000a900473ffffffffffffffffffffffffffffffffffffffff1673ffffffffffffffffffffffffffffffffffffffff163373ffffffffffffffffffffffffffffffffffffffff1614151561080e57600080fd5b565b6000809054906101000a900473ffffffffffffffffffffffffffffffffffffffff1673ffffffffffffffffffffffffffffffffffffffff163373ffffffffffffffffffffffffffffffffffffffff1614151561086b57600080fd5b61087361048b565b806108cd57506001600460008373ffffffffffffffffffffffffffffffffffffffff1673ffffffffffffffffffffffffffffffffffffffff16815260200190815260200160002060009054906101000a900460ff1660ff16145b15156108d857600080fd5b6002600460008373ffffffffffffffffffffffffffffffffffffffff1673ffffffffffffffffffffffffffffffffffffffff16815260200190815260200160002060009054906101000a900460ff1660ff1610151561093657600080fd5b6002805480600101828161094a91906109f5565b9160005260206000209001600083909190916101000a81548173ffffffffffffffffffffffffffffffffffffffff021916908373ffffffffffffffffffffffffffffffffffffffff160217905550506002600460008373ffffffffffffffffffffffffffffffffffffffff1673ffffffffffffffffffffffffffffffffffffffff16815260200190815260200160002060006101000a81548160ff021916908360ff16021790555050565b815481835581811511610a1c57818360005260206000209182019101610a1b9190610ad0565b5b505050565b82805482825590600052602060002090601f01602090048101928215610abf5791602002820160005b83821115610a9057835183826101000a81548160ff02191690836002811115610a6f57fe5b02179055509260200192600101602081600001049283019260010302610a4a565b8015610abd5782816101000a81549060ff0219169055600101602081600001049283019260010302610a90565b505b509050610acc9190610af5565b5090565b610af291905b80821115610aee576000816000905550600101610ad6565b5090565b90565b610b2291905b80821115610b1e57600081816101000a81549060ff021916905550600101610afb565b5090565b905600a165627a7a72305820c8c53d0f882286bec8a61b37817424977974332b777509f2c69b3ca3cd26487e0029",
  "source": "pragma solidity ^0.4.17;\n\ncontract CheersContract {\n\n    enum ActivityType {Drinks, Tickets, Food}\n\n    address spender;\n\n    address[] candidates;\n\n    address[] profiteers;\n\n    address[] cashedOut;\n\n    mapping (address => uint8) userStates;\n\n    ActivityType[] activities;\n\n    uint maxCandidates;\n\n    uint firstContactBudget;\n\n    function CheersContract(uint _maxCandidates, uint _firstContactReward, ActivityType[] _activities) public payable {\n        // msg.value should be more than first contact reward times the candidates maximum\n        require(_maxCandidates == 0 || msg.value > _firstContactReward * _maxCandidates);\n\n        spender = msg.sender;\n        maxCandidates = _maxCandidates;\n        firstContactBudget = _firstContactReward * _maxCandidates;\n        activities = _activities;\n    }\n\n    function getCompensation() constant public returns (uint) {\n        return this.balance - firstContactBudget;\n    }\n\n    function isOpen() constant public returns (bool) {\n        return candidates.length + profiteers.length < maxCandidates;\n    }\n\n    function addAmount() public payable {\n        require(msg.sender == spender);\n    }\n\n    function setActivities(ActivityType[] _activities) public {\n        require(msg.sender == spender);\n        activities = _activities;\n    }\n\n    function addCandidate(address candidate) public {\n        require(candidate != spender);\n        require(isOpen());\n        require(userStates[candidate] == 0);\n\n        candidates.push(candidate);\n        userStates[candidate] = 1;\n        candidate.transfer(1 ether / 10000);\n    }\n\n    function addProfiteer(address _profiteer) public {\n        require(msg.sender == spender);\n        require(isOpen() || userStates[_profiteer] == 1);\n        require(userStates[_profiteer] < 2);\n\n        profiteers.push(_profiteer);\n        userStates[_profiteer] = 2;\n    }\n\n    function cashOut() public returns (bool) {\n        require(msg.sender == spender);\n        uint profiteersLength = profiteers.length;\n        for (uint i = 0; i < profiteers.length; i++) {\n            profiteers[i].transfer(getCompensation() / maxCandidates);\n            cashedOut.push(profiteers[i]);\n            userStates[profiteers[i]] = 3;\n            delete profiteers[i];\n        }\n        maxCandidates -= profiteersLength;\n        return true;\n    }\n\n    function kill() public {\n        require(msg.sender == spender);\n        selfdestruct(spender);\n    }\n}",
  "sourcePath": "/Users/tillkolter/work/me/haello/contracts/CheersContract.sol",
  "compiler": {
    "name": "solc",
    "version": "0.4.18+commit.9cf6e910.Emscripten.clang"
  },
  "schemaVersion": "1.0.1",
  "updatedAt": "2017-12-05T09:15:31.104Z"
}