{
  "contractName": "CheersContract",
  "abi": [
    {
      "constant": true,
      "inputs": [],
      "name": "getCandidates",
      "outputs": [
        {
          "name": "",
          "type": "address[]"
        }
      ],
      "payable": false,
      "stateMutability": "view",
      "type": "function"
    },
    {
      "constant": true,
      "inputs": [],
      "name": "getCompensation",
      "outputs": [
        {
          "name": "",
          "type": "uint256"
        }
      ],
      "payable": false,
      "stateMutability": "view",
      "type": "function"
    },
    {
      "constant": false,
      "inputs": [
        {
          "name": "candidate",
          "type": "address"
        }
      ],
      "name": "addCandidate",
      "outputs": [
        {
          "name": "",
          "type": "bool"
        }
      ],
      "payable": false,
      "stateMutability": "nonpayable",
      "type": "function"
    },
    {
      "constant": false,
      "inputs": [],
      "name": "kill",
      "outputs": [],
      "payable": false,
      "stateMutability": "nonpayable",
      "type": "function"
    },
    {
      "constant": true,
      "inputs": [],
      "name": "isOpen",
      "outputs": [
        {
          "name": "",
          "type": "bool"
        }
      ],
      "payable": false,
      "stateMutability": "view",
      "type": "function"
    },
    {
      "constant": true,
      "inputs": [],
      "name": "activity",
      "outputs": [
        {
          "name": "",
          "type": "uint8"
        }
      ],
      "payable": false,
      "stateMutability": "view",
      "type": "function"
    },
    {
      "constant": true,
      "inputs": [],
      "name": "maxCandidates",
      "outputs": [
        {
          "name": "",
          "type": "uint256"
        }
      ],
      "payable": false,
      "stateMutability": "view",
      "type": "function"
    },
    {
      "constant": false,
      "inputs": [],
      "name": "cashOut",
      "outputs": [
        {
          "name": "",
          "type": "bool"
        }
      ],
      "payable": false,
      "stateMutability": "nonpayable",
      "type": "function"
    },
    {
      "constant": false,
      "inputs": [
        {
          "name": "_activity",
          "type": "uint8"
        }
      ],
      "name": "setActivity",
      "outputs": [],
      "payable": false,
      "stateMutability": "nonpayable",
      "type": "function"
    },
    {
      "constant": false,
      "inputs": [],
      "name": "addAmount",
      "outputs": [],
      "payable": true,
      "stateMutability": "payable",
      "type": "function"
    },
    {
      "constant": true,
      "inputs": [],
      "name": "getCandidatesCount",
      "outputs": [
        {
          "name": "",
          "type": "uint256"
        }
      ],
      "payable": false,
      "stateMutability": "view",
      "type": "function"
    },
    {
      "constant": true,
      "inputs": [],
      "name": "firstContactBudget",
      "outputs": [
        {
          "name": "",
          "type": "uint256"
        }
      ],
      "payable": false,
      "stateMutability": "view",
      "type": "function"
    },
    {
      "constant": true,
      "inputs": [
        {
          "name": "userAddress",
          "type": "address"
        }
      ],
      "name": "isCandidate",
      "outputs": [
        {
          "name": "",
          "type": "bool"
        }
      ],
      "payable": false,
      "stateMutability": "view",
      "type": "function"
    },
    {
      "constant": true,
      "inputs": [],
      "name": "spender",
      "outputs": [
        {
          "name": "",
          "type": "address"
        }
      ],
      "payable": false,
      "stateMutability": "view",
      "type": "function"
    },
    {
      "constant": false,
      "inputs": [
        {
          "name": "_profiteer",
          "type": "address"
        }
      ],
      "name": "addProfiteer",
      "outputs": [],
      "payable": false,
      "stateMutability": "nonpayable",
      "type": "function"
    },
    {
      "inputs": [
        {
          "name": "_maxCandidates",
          "type": "uint256"
        },
        {
          "name": "_firstContactReward",
          "type": "uint256"
        },
        {
          "name": "_activity",
          "type": "uint8"
        }
      ],
      "payable": true,
      "stateMutability": "payable",
      "type": "constructor"
    }
  ],
  "bytecode": "0x6060604052604051606080610e80833981016040528080519060200190919080519060200190919080519060200190919050506000831480610042575082820234115b151561004d57600080fd5b336000806101000a81548173ffffffffffffffffffffffffffffffffffffffff021916908373ffffffffffffffffffffffffffffffffffffffff1602179055508260068190555082820260078190555080600560006101000a81548160ff021916908360028111156100bb57fe5b0217905550505050610dae806100d26000396000f3006060604052600436106100db576000357c0100000000000000000000000000000000000000000000000000000000900463ffffffff16806306a49fce146100e0578063076aa0261461014a5780633acd75f81461017357806341c0e1b5146101c457806347535d7b146101d95780635d9c7a161461020657806365af2ac81461023d578063793cd71e1461026657806384cd45d014610293578063b9c14577146102b9578063bb9aa28f146102c3578063d451cfcf146102ec578063d51b9e9314610315578063e8edc81614610366578063f18f4001146103bb575b600080fd5b34156100eb57600080fd5b6100f36103f4565b6040518080602001828103825283818151815260200191508051906020019060200280838360005b8381101561013657808201518184015260208101905061011b565b505050509050019250505060405180910390f35b341561015557600080fd5b61015d6104e3565b6040518082815260200191505060405180910390f35b341561017e57600080fd5b6101aa600480803573ffffffffffffffffffffffffffffffffffffffff16906020019091905050610506565b604051808215151515815260200191505060405180910390f35b34156101cf57600080fd5b6101d76106bc565b005b34156101e457600080fd5b6101ec610751565b604051808215151515815260200191505060405180910390f35b341561021157600080fd5b610219610769565b6040518082600281111561022957fe5b60ff16815260200191505060405180910390f35b341561024857600080fd5b61025061077c565b6040518082815260200191505060405180910390f35b341561027157600080fd5b610279610782565b604051808215151515815260200191505060405180910390f35b341561029e57600080fd5b6102b7600480803560ff16906020019091905050610a09565b005b6102c1610a8a565b005b34156102ce57600080fd5b6102d6610ae7565b6040518082815260200191505060405180910390f35b34156102f757600080fd5b6102ff610af4565b6040518082815260200191505060405180910390f35b341561032057600080fd5b61034c600480803573ffffffffffffffffffffffffffffffffffffffff16906020019091905050610afa565b604051808215151515815260200191505060405180910390f35b341561037157600080fd5b610379610b47565b604051808273ffffffffffffffffffffffffffffffffffffffff1673ffffffffffffffffffffffffffffffffffffffff16815260200191505060405180910390f35b34156103c657600080fd5b6103f2600480803573ffffffffffffffffffffffffffffffffffffffff16906020019091905050610b6c565b005b6103fc610d1d565b6000809054906101000a900473ffffffffffffffffffffffffffffffffffffffff1673ffffffffffffffffffffffffffffffffffffffff163373ffffffffffffffffffffffffffffffffffffffff1614151561045757600080fd5b60018054806020026020016040519081016040528092919081815260200182805480156104d957602002820191906000526020600020905b8160009054906101000a900473ffffffffffffffffffffffffffffffffffffffff1673ffffffffffffffffffffffffffffffffffffffff168152602001906001019080831161048f575b5050505050905090565b60006007543073ffffffffffffffffffffffffffffffffffffffff163103905090565b60008060009054906101000a900473ffffffffffffffffffffffffffffffffffffffff1673ffffffffffffffffffffffffffffffffffffffff168273ffffffffffffffffffffffffffffffffffffffff161415151561056457600080fd5b61056c610751565b151561057757600080fd5b6000600460008473ffffffffffffffffffffffffffffffffffffffff1673ffffffffffffffffffffffffffffffffffffffff168152602001908152602001600020541415156105c557600080fd5b600180548060010182816105d99190610d31565b9160005260206000209001600084909190916101000a81548173ffffffffffffffffffffffffffffffffffffffff021916908373ffffffffffffffffffffffffffffffffffffffff160217905550506001600460008473ffffffffffffffffffffffffffffffffffffffff1673ffffffffffffffffffffffffffffffffffffffff168152602001908152602001600020819055508173ffffffffffffffffffffffffffffffffffffffff166108fc655af3107a40009081150290604051600060405180830381858888f1935050505015156106b357600080fd5b60019050919050565b6000809054906101000a900473ffffffffffffffffffffffffffffffffffffffff1673ffffffffffffffffffffffffffffffffffffffff163373ffffffffffffffffffffffffffffffffffffffff1614151561071757600080fd5b6000809054906101000a900473ffffffffffffffffffffffffffffffffffffffff1673ffffffffffffffffffffffffffffffffffffffff16ff5b60006006546002805490506001805490500110905090565b600560009054906101000a900460ff1681565b60065481565b60008060008060009054906101000a900473ffffffffffffffffffffffffffffffffffffffff1673ffffffffffffffffffffffffffffffffffffffff163373ffffffffffffffffffffffffffffffffffffffff161415156107e257600080fd5b6002805490509150600090505b6002805490508110156109f05760028181548110151561080b57fe5b906000526020600020900160009054906101000a900473ffffffffffffffffffffffffffffffffffffffff1673ffffffffffffffffffffffffffffffffffffffff166108fc60065461085b6104e3565b81151561086457fe5b049081150290604051600060405180830381858888f19350505050151561088a57600080fd5b6003805480600101828161089e9190610d31565b916000526020600020900160006002848154811015156108ba57fe5b906000526020600020900160009054906101000a900473ffffffffffffffffffffffffffffffffffffffff16909190916101000a81548173ffffffffffffffffffffffffffffffffffffffff021916908373ffffffffffffffffffffffffffffffffffffffff1602179055505060036004600060028481548110151561093c57fe5b906000526020600020900160009054906101000a900473ffffffffffffffffffffffffffffffffffffffff1673ffffffffffffffffffffffffffffffffffffffff1673ffffffffffffffffffffffffffffffffffffffff168152602001908152602001600020819055506002818154811015156109b557fe5b906000526020600020900160006101000a81549073ffffffffffffffffffffffffffffffffffffffff021916905580806001019150506107ef565b8160066000828254039250508190555060019250505090565b6000809054906101000a900473ffffffffffffffffffffffffffffffffffffffff1673ffffffffffffffffffffffffffffffffffffffff163373ffffffffffffffffffffffffffffffffffffffff16141515610a6457600080fd5b80600560006101000a81548160ff02191690836002811115610a8257fe5b021790555050565b6000809054906101000a900473ffffffffffffffffffffffffffffffffffffffff1673ffffffffffffffffffffffffffffffffffffffff163373ffffffffffffffffffffffffffffffffffffffff16141515610ae557600080fd5b565b6000600180549050905090565b60075481565b60006001600460008473ffffffffffffffffffffffffffffffffffffffff1673ffffffffffffffffffffffffffffffffffffffff1681526020019081526020016000205414159050919050565b6000809054906101000a900473ffffffffffffffffffffffffffffffffffffffff1681565b6000809054906101000a900473ffffffffffffffffffffffffffffffffffffffff1673ffffffffffffffffffffffffffffffffffffffff163373ffffffffffffffffffffffffffffffffffffffff16141515610bc757600080fd5b610bcf610751565b80610c1957506001600460008373ffffffffffffffffffffffffffffffffffffffff1673ffffffffffffffffffffffffffffffffffffffff16815260200190815260200160002054145b1515610c2457600080fd5b6002600460008373ffffffffffffffffffffffffffffffffffffffff1673ffffffffffffffffffffffffffffffffffffffff16815260200190815260200160002054121515610c7257600080fd5b60028054806001018281610c869190610d31565b9160005260206000209001600083909190916101000a81548173ffffffffffffffffffffffffffffffffffffffff021916908373ffffffffffffffffffffffffffffffffffffffff160217905550506002600460008373ffffffffffffffffffffffffffffffffffffffff1673ffffffffffffffffffffffffffffffffffffffff1681526020019081526020016000208190555050565b602060405190810160405280600081525090565b815481835581811511610d5857818360005260206000209182019101610d579190610d5d565b5b505050565b610d7f91905b80821115610d7b576000816000905550600101610d63565b5090565b905600a165627a7a72305820b79dd004c9be2a060ace75870a9bac7d76f8317201ef131f1d1ae6fdd9a614ce0029",
  "source": "pragma solidity ^0.4.17;\n\ncontract CheersContract {\n\n    enum ActivityType {Drinks, Tickets, Food}\n\n    address public spender;\n\n    address[] candidates;\n\n    address[] profiteers;\n\n    address[] cashedOut;\n\n    mapping (address => int) userStates;\n\n    ActivityType public activity;\n\n    uint public maxCandidates;\n\n    uint public firstContactBudget;\n\n    function CheersContract(uint _maxCandidates, uint _firstContactReward, ActivityType _activity) public payable {\n        // msg.value should be more than first contact reward times the candidates maximum\n        require(_maxCandidates == 0 || msg.value > _firstContactReward * _maxCandidates);\n\n        spender = msg.sender;\n        maxCandidates = _maxCandidates;\n        firstContactBudget = _firstContactReward * _maxCandidates;\n        activity = _activity;\n    }\n\n    function getCompensation() constant public returns (uint) {\n        return this.balance - firstContactBudget;\n    }\n\n    function isOpen() constant public returns (bool) {\n        return candidates.length + profiteers.length < maxCandidates;\n    }\n\n    function addAmount() public payable {\n        require(msg.sender == spender);\n    }\n\n    function setActivity(ActivityType _activity) public {\n        require(msg.sender == spender);\n        activity = _activity;\n    }\n\n    function addCandidate(address candidate) public returns (bool){\n        require(candidate != spender);\n        require(isOpen());\n        require(userStates[candidate] == 0);\n\n        candidates.push(candidate);\n        userStates[candidate] = 1;\n        candidate.transfer(1 ether / 10000);\n        return true;\n    }\n\n    function addProfiteer(address _profiteer) public {\n        require(msg.sender == spender);\n        require(isOpen() || userStates[_profiteer] == 1);\n        require(userStates[_profiteer] < 2);\n\n        profiteers.push(_profiteer);\n        userStates[_profiteer] = 2;\n    }\n\n    function cashOut() public returns (bool) {\n        require(msg.sender == spender);\n        uint profiteersLength = profiteers.length;\n        for (uint i = 0; i < profiteers.length; i++) {\n            profiteers[i].transfer(getCompensation() / maxCandidates);\n            cashedOut.push(profiteers[i]);\n            userStates[profiteers[i]] = 3;\n            delete profiteers[i];\n        }\n        maxCandidates -= profiteersLength;\n        return true;\n    }\n\n    function isCandidate(address userAddress) public constant returns (bool) {\n        // require(msg.sender == spender || msg.sender == userAddress);\n        return userStates[userAddress] != 1;\n    }\n\n    function getCandidates() public constant returns (address[]) {\n        require(msg.sender == spender);\n        return candidates;\n    }\n\n    function getCandidatesCount() public constant returns (uint) {\n        return candidates.length;\n    }\n\n    function kill() public {\n        require(msg.sender == spender);\n        selfdestruct(spender);\n    }\n}",
  "sourcePath": "/Users/tillkolter/work/me/haello/contracts/CheersContract.sol",
  "compiler": {
    "name": "solc",
    "version": "0.4.18+commit.9cf6e910.Emscripten.clang"
  },
  "schemaVersion": "1.0.1",
  "updatedAt": "2017-12-08T16:54:35.674Z"
}