{
  "contractName": "CheersContract",
  "abi": [
    {
      "constant": true,
      "inputs": [],
      "name": "getCompensation",
      "outputs": [
        {
          "name": "",
          "type": "uint256"
        }
      ],
      "payable": false,
      "stateMutability": "view",
      "type": "function"
    },
    {
      "constant": false,
      "inputs": [
        {
          "name": "candidate",
          "type": "address"
        }
      ],
      "name": "addCandidate",
      "outputs": [],
      "payable": false,
      "stateMutability": "nonpayable",
      "type": "function"
    },
    {
      "constant": false,
      "inputs": [],
      "name": "kill",
      "outputs": [],
      "payable": false,
      "stateMutability": "nonpayable",
      "type": "function"
    },
    {
      "constant": true,
      "inputs": [],
      "name": "isOpen",
      "outputs": [
        {
          "name": "",
          "type": "bool"
        }
      ],
      "payable": false,
      "stateMutability": "view",
      "type": "function"
    },
    {
      "constant": false,
      "inputs": [],
      "name": "cashOut",
      "outputs": [
        {
          "name": "",
          "type": "bool"
        }
      ],
      "payable": false,
      "stateMutability": "nonpayable",
      "type": "function"
    },
    {
      "constant": false,
      "inputs": [
        {
          "name": "_activities",
          "type": "uint8[]"
        }
      ],
      "name": "setActivities",
      "outputs": [],
      "payable": false,
      "stateMutability": "nonpayable",
      "type": "function"
    },
    {
      "constant": false,
      "inputs": [],
      "name": "addAmount",
      "outputs": [],
      "payable": true,
      "stateMutability": "payable",
      "type": "function"
    },
    {
      "constant": false,
      "inputs": [
        {
          "name": "_profiteer",
          "type": "address"
        }
      ],
      "name": "addProfiteer",
      "outputs": [],
      "payable": false,
      "stateMutability": "nonpayable",
      "type": "function"
    },
    {
      "inputs": [
        {
          "name": "_maxCandidates",
          "type": "uint256"
        },
        {
          "name": "_firstContactReward",
          "type": "uint256"
        },
        {
          "name": "_activities",
          "type": "uint8[]"
        }
      ],
      "payable": true,
      "stateMutability": "payable",
      "type": "constructor"
    }
  ],
  "bytecode": "0x6060604052604051610825380380610825833981016040528080519190602001805191906020018051909101905082158061003b575082820234115b151561004657600080fd5b60008054600160a060020a03191633600160a060020a03161790556006839055818302600755600581805161007f929160200190610088565b50505050610157565b82805482825590600052602060002090601f016020900481019282156101265791602002820160005b838211156100f757835183826101000a81548160ff021916908360028111156100d657fe5b021790555092602001926001016020816000010492830192600103026100b1565b80156101245782816101000a81549060ff02191690556001016020816000010492830192600103026100f7565b505b50610132929150610136565b5090565b61015491905b8082111561013257805460ff1916815560010161013c565b90565b6106bf806101666000396000f30060606040526004361061008d5763ffffffff7c0100000000000000000000000000000000000000000000000000000000600035041663076aa02681146100925780633acd75f8146100b757806341c0e1b5146100d857806347535d7b146100eb578063793cd71e14610112578063a8f2756214610125578063b9c1457714610174578063f18f40011461017c575b600080fd5b341561009d57600080fd5b6100a561019b565b60405190815260200160405180910390f35b34156100c257600080fd5b6100d6600160a060020a03600435166101ae565b005b34156100e357600080fd5b6100d661028f565b34156100f657600080fd5b6100fe6102b8565b604051901515815260200160405180910390f35b341561011d57600080fd5b6100fe6102c6565b341561013057600080fd5b6100d6600460248135818101908301358060208181020160405190810160405280939291908181526020018383602002808284375094965061045395505050505050565b6100d6610485565b341561018757600080fd5b6100d6600160a060020a03600435166104a2565b600754600160a060020a03301631035b90565b600054600160a060020a03828116911614156101c957600080fd5b6101d16102b8565b15156101dc57600080fd5b600160a060020a03811660009081526004602052604090205460ff161561020257600080fd5b600180548082016102138382610584565b506000918252602080832091909101805473ffffffffffffffffffffffffffffffffffffffff1916600160a060020a03851690811790915580835260049091526040808320805460ff19166001179055909190655af3107a40009051600060405180830381858888f19350505050151561028c57600080fd5b50565b60005433600160a060020a039081169116146102aa57600080fd5b600054600160a060020a0316ff5b600654600254600154011090565b600080548190819033600160a060020a039081169116146102e657600080fd5b505060025460005b60025481101561044257600280548290811061030657fe5b600091825260209091200154600654600160a060020a03909116906108fc9061032d61019b565b81151561033657fe5b049081150290604051600060405180830381858888f19350505050151561035c57600080fd5b600380546001810161036e8382610584565b9160005260206000209001600060028481548110151561038a57fe5b600091825260208220015483546101009390930a600160a060020a0391821681029102199092169190911790915560028054600393506004929190859081106103cf57fe5b600091825260208083209190910154600160a060020a031683528201929092526040019020805460ff191660ff92909216919091179055600280548290811061041457fe5b6000918252602090912001805473ffffffffffffffffffffffffffffffffffffffff191690556001016102ee565b506006805491909103905550600190565b60005433600160a060020a0390811691161461046e57600080fd5b60058180516104819291602001906105ad565b5050565b60005433600160a060020a039081169116146104a057600080fd5b565b60005433600160a060020a039081169116146104bd57600080fd5b6104c56102b8565b806104eb5750600160a060020a03811660009081526004602052604090205460ff166001145b15156104f657600080fd5b600160a060020a038116600090815260046020526040902054600260ff9091161061052057600080fd5b60028054600181016105328382610584565b5060009182526020808320919091018054600160a060020a0390941673ffffffffffffffffffffffffffffffffffffffff1990941684179055918152600490915260409020805460ff19166002179055565b8154818355818115116105a8576000838152602090206105a891810190830161065b565b505050565b82805482825590600052602060002090601f0160209004810192821561064b5791602002820160005b8382111561061c57835183826101000a81548160ff021916908360028111156105fb57fe5b021790555092602001926001016020816000010492830192600103026105d6565b80156106495782816101000a81549060ff021916905560010160208160000104928301926001030261061c565b505b50610657929150610675565b5090565b6101ab91905b808211156106575760008155600101610661565b6101ab91905b8082111561065757805460ff1916815560010161067b5600a165627a7a723058205c473feeb56f2577ec0ed08ff7d3f9d3101edc16c8bf8f15469e5e812197f3dd0029",
  "source": "pragma solidity ^0.4.17;\n\ncontract CheersContract {\n\n    enum ActivityType {Drinks, Tickets, Food}\n\n    address spender;\n\n    address[] candidates;\n\n    address[] profiteers;\n\n    address[] cashedOut;\n\n    mapping (address => uint8) userStates;\n\n    ActivityType[] activities;\n\n    uint maxCandidates;\n\n    uint firstContactBudget;\n\n    function CheersContract(uint _maxCandidates, uint _firstContactReward, ActivityType[] _activities) public payable {\n        // msg.value should be more than first contact reward times the candidates maximum\n        require(_maxCandidates == 0 || msg.value > _firstContactReward * _maxCandidates);\n\n        spender = msg.sender;\n        maxCandidates = _maxCandidates;\n        firstContactBudget = _firstContactReward * _maxCandidates;\n        activities = _activities;\n    }\n\n    function getCompensation() constant public returns (uint) {\n        return this.balance - firstContactBudget;\n    }\n\n    function isOpen() constant public returns (bool) {\n        return candidates.length + profiteers.length < maxCandidates;\n    }\n\n    function addAmount() public payable {\n        require(msg.sender == spender);\n    }\n\n    function setActivities(ActivityType[] _activities) public {\n        require(msg.sender == spender);\n        activities = _activities;\n    }\n\n    function addCandidate(address candidate) public {\n        require(candidate != spender);\n        require(isOpen());\n        require(userStates[candidate] == 0);\n\n        candidates.push(candidate);\n        userStates[candidate] = 1;\n        candidate.transfer(1 ether / 10000);\n    }\n\n    function addProfiteer(address _profiteer) public {\n        require(msg.sender == spender);\n        require(isOpen() || userStates[_profiteer] == 1);\n        require(userStates[_profiteer] < 2);\n\n        profiteers.push(_profiteer);\n        userStates[_profiteer] = 2;\n    }\n\n    function cashOut() public returns (bool) {\n        require(msg.sender == spender);\n        uint profiteersLength = profiteers.length;\n        for (uint i = 0; i < profiteers.length; i++) {\n            profiteers[i].transfer(getCompensation() / maxCandidates);\n            cashedOut.push(profiteers[i]);\n            userStates[profiteers[i]] = 3;\n            delete profiteers[i];\n        }\n        maxCandidates -= profiteersLength;\n        return true;\n    }\n\n    function kill() public {\n        require(msg.sender == spender);\n        selfdestruct(spender);\n    }\n}",
  "sourcePath": "/Users/tillkolter/work/me/haello/contracts/CheersContract.sol",
  "compiler": {
    "name": "solc",
    "version": "0.4.18+commit.9cf6e910.Emscripten.clang"
  },
  "schemaVersion": "1.0.1",
  "updatedAt": "2017-12-07T01:12:05.301Z"
}