{
  "contractName": "DoublyLinkedList",
  "abi": [
    {
      "constant": false,
      "inputs": [
        {
          "name": "self",
          "type": "DoublyLinkedList.data storage"
        },
        {
          "name": "_index",
          "type": "uint80"
        }
      ],
      "name": "iterate_prev",
      "outputs": [
        {
          "name": "",
          "type": "uint80"
        }
      ],
      "payable": false,
      "stateMutability": "nonpayable",
      "type": "function"
    },
    {
      "constant": false,
      "inputs": [
        {
          "name": "self",
          "type": "DoublyLinkedList.data storage"
        },
        {
          "name": "_index",
          "type": "uint80"
        }
      ],
      "name": "iterate_next",
      "outputs": [
        {
          "name": "",
          "type": "uint80"
        }
      ],
      "payable": false,
      "stateMutability": "nonpayable",
      "type": "function"
    },
    {
      "constant": false,
      "inputs": [
        {
          "name": "self",
          "type": "DoublyLinkedList.data storage"
        }
      ],
      "name": "iterate_start",
      "outputs": [
        {
          "name": "",
          "type": "uint80"
        }
      ],
      "payable": false,
      "stateMutability": "nonpayable",
      "type": "function"
    },
    {
      "constant": false,
      "inputs": [
        {
          "name": "self",
          "type": "DoublyLinkedList.data storage"
        },
        {
          "name": "_index",
          "type": "uint80"
        }
      ],
      "name": "iterate_valid",
      "outputs": [
        {
          "name": "",
          "type": "bool"
        }
      ],
      "payable": false,
      "stateMutability": "nonpayable",
      "type": "function"
    },
    {
      "constant": false,
      "inputs": [
        {
          "name": "self",
          "type": "DoublyLinkedList.data storage"
        },
        {
          "name": "_data",
          "type": "address"
        }
      ],
      "name": "append",
      "outputs": [],
      "payable": false,
      "stateMutability": "nonpayable",
      "type": "function"
    },
    {
      "constant": false,
      "inputs": [
        {
          "name": "self",
          "type": "DoublyLinkedList.data storage"
        },
        {
          "name": "_index",
          "type": "uint80"
        }
      ],
      "name": "remove",
      "outputs": [],
      "payable": false,
      "stateMutability": "nonpayable",
      "type": "function"
    },
    {
      "constant": false,
      "inputs": [
        {
          "name": "self",
          "type": "DoublyLinkedList.data storage"
        },
        {
          "name": "_value",
          "type": "address"
        }
      ],
      "name": "find",
      "outputs": [
        {
          "name": "",
          "type": "uint80"
        }
      ],
      "payable": false,
      "stateMutability": "nonpayable",
      "type": "function"
    },
    {
      "constant": false,
      "inputs": [
        {
          "name": "self",
          "type": "DoublyLinkedList.data storage"
        },
        {
          "name": "_index",
          "type": "uint80"
        }
      ],
      "name": "iterate_get",
      "outputs": [
        {
          "name": "",
          "type": "address"
        }
      ],
      "payable": false,
      "stateMutability": "nonpayable",
      "type": "function"
    }
  ],
  "bytecode": "0x6060604052341561000f57600080fd5b6108068061001e6000396000f30060606040526004361061008d5763ffffffff7c010000000000000000000000000000000000000000000000000000000060003504166309f573b381146100925780632c958b29146100c55780637fd1c307146100dc57806391e39672146100e757806394d59dfd146101125780639932fdbf1461012b578063b752512414610142578063d59fa94314610159575b600080fd5b6100a96004356001605060020a036024351661018c565b6040516001605060020a03909116815260200160405180910390f35b6100a96004356001605060020a03602435166101cc565b6100a9600435610213565b6100fe6004356001605060020a0360243516610220565b604051901515815260200160405180910390f35b610129600435600160a060020a036024351661023a565b005b6101296004356001605060020a0360243516610495565b6100a9600435600160a060020a03602435166106c9565b6101706004356001605060020a036024351661072e565b604051600160a060020a03909116815260200160405180910390f35b600082600101600183036001605060020a03168154811015156101ab57fe5b60009182526020909120600290910201546001605060020a03169392505050565b600082600101600183036001605060020a03168154811015156101eb57fe5b6000918252602090912060029091020154605060020a90046001605060020a03169392505050565b546001605060020a031690565b60018201546001605060020a036000198301161092915050565b6001808301805460009281016102508382610771565b91600052602060002090600202016000606060405190810160409081528754605060020a90046001605060020a0316825260006020830152600160a060020a038716908201529190508151815469ffffffffffffffffffff19166001605060020a0391909116178155602082015181546001605060020a0391909116605060020a0273ffffffffffffffffffff00000000000000000000199091161781556040820151600191909101805473ffffffffffffffffffffffffffffffffffffffff1916600160a060020a039092169190911790555083549091506001605060020a03605060020a9091041615156103e05782546001605060020a03161515806103685750825460a060020a90046001605060020a031615155b1561037257600080fd5b825460a060020a73ffffffffffffffffffff0000000000000000000019909116605060020a6001605060020a0384169081029190911769ffffffffffffffffffff1916177fffff00000000000000000000ffffffffffffffffffffffffffffffffffffffff16178355610490565b825460018401805483926000196001605060020a03605060020a9092048216011690811061040a57fe5b6000918252602090912060029091020180546001605060020a03928316605060020a90810273ffffffffffffffffffff000000000000000000001992831617909255855460a060020a8585169093029116178181048316600101909216027fffff00000000000000000000ffffffffffffffffffffffffffffffffffffffff9091161783555b505050565b600082600101600183036001605060020a03168154811015156104b457fe5b6000918252602090912060029091020180549091506001605060020a031615156105005780548354605060020a9091046001605060020a031669ffffffffffffffffffff199091161783555b8054605060020a90046001605060020a03161515610548578054835473ffffffffffffffffffff0000000000000000000019166001605060020a03909116605060020a021783555b80546001605060020a0316156105b95780546001840180546001605060020a03605060020a8404811693600019908216011690811061058357fe5b9060005260206000209060020201600001600a6101000a8154816001605060020a0302191690836001605060020a031602179055505b8054605060020a90046001605060020a03161561062d5780546001840180546001605060020a0380841693605060020a9004811660001901169081106105fb57fe5b60009182526020909120600290910201805469ffffffffffffffffffff19166001605060020a03929092169190911790555b6001830180546001605060020a0360001985011690811061064a57fe5b60009182526020909120600290910201805473ffffffffffffffffffffffffffffffffffffffff1990811682556001909101805490911690555050805460a060020a8082046001605060020a039081166000190116027fffff00000000000000000000ffffffffffffffffffffffffffffffffffffffff909116179055565b6000806106d584610213565b90505b6106e28482610220565b156107235782600160a060020a03166106fb858361072e565b600160a060020a0316141561071257809150610727565b61071c84826101cc565b90506106d8565b8091505b5092915050565b600082600101600183036001605060020a031681548110151561074d57fe5b6000918252602090912060029091020160010154600160a060020a03169392505050565b81548183558181151161049057600083815260209020610490916107d79160029182028101918502015b808211156107d357805473ffffffffffffffffffffffffffffffffffffffff199081168255600182018054909116905560020161079b565b5090565b905600a165627a7a72305820b640ede04a07aed9e3716c46c29359d51b9c50d50176b3991abcb226142eda390029",
  "source": "pragma solidity ^0.4.18;\n\nlibrary DoublyLinkedList {\n    struct data {\n    uint80 first;\n    uint80 last;\n    uint80 count;\n    Item[] items;\n    }\n    uint80 constant None = uint80(0);\n    struct Item {\n    uint80 prev;\n    uint80 next;\n    address data;\n    }\n    /// Appends `_data` to the end of the list `self`.\n    function append(data storage self, address _data) {\n        var index = uint80(self.items.push(Item({prev: self.last, next: None, data: _data})));\n        if (self.last == None)\n        {\n            if (self.first != None || self.count != 0) throw;\n            self.first = self.last = index;\n            self.count = 1;\n        }\n        else\n        {\n            self.items[self.last - 1].next = index;\n            self.last = index;\n            self.count ++;\n        }\n    }\n    /// Removes the element identified by the iterator\n    /// `_index` from the list `self`.\n    function remove(data storage self, uint80 _index) {\n        Item item = self.items[_index - 1];\n        if (item.prev == None)\n        self.first = item.next;\n        if (item.next == None)\n        self.last = item.prev;\n        if (item.prev != None)\n        self.items[item.prev - 1].next = item.next;\n        if (item.next != None)\n        self.items[item.next - 1].prev = item.prev;\n        delete self.items[_index - 1];\n        self.count--;\n    }\n    /// @return an iterator pointing to the first element whose data\n    /// is `_value` or an invalid iterator otherwise.\n    function find(data storage self, address _value) returns (uint80) {\n        var it = iterate_start(self);\n        while (iterate_valid(self, it)) {\n            if (iterate_get(self, it) == _value)\n            return it;\n            it = iterate_next(self, it);\n        }\n        return it;\n    }\n    // Iterator interface\n    function iterate_start(data storage self) returns (uint80) { return self.first; }\n    function iterate_valid(data storage self, uint80 _index) returns (bool) { return _index - 1 < self.items.length; }\n    function iterate_prev(data storage self, uint80 _index) returns (uint80) { return self.items[_index - 1].prev; }\n    function iterate_next(data storage self, uint80 _index) returns (uint80) { return self.items[_index - 1].next; }\n    function iterate_get(data storage self, uint80 _index) returns (address) { return self.items[_index - 1].data; }\n}\n//\n//contract Test {\n//    using DoublyLinkedList for DoublyLinkedList.data;\n//    DoublyLinkedList.data public list;\n//    function Test() {\n//        list.append(\"abc\");\n//        list.append(\"abc\");\n//        list.append(\"def\");\n//    }\n//    function remove(address data) returns (bool success) {\n//        var it = list.find(data);\n//        if (list.iterate_valid(it))\n//        {\n//            list.remove(it);\n//            return true;\n//        }\n//        return false;\n//    }\n//}",
  "sourcePath": "/Users/tillkolter/work/me/haello/contracts/DoublyLinkedList.sol",
  "compiler": {
    "name": "solc",
    "version": "0.4.18+commit.9cf6e910.Emscripten.clang"
  },
  "schemaVersion": "1.0.1",
  "updatedAt": "2017-12-07T00:55:59.885Z"
}