{
  "contractName": "UserLocation",
  "abi": [
    {
      "constant": true,
      "inputs": [],
      "name": "getGeohash",
      "outputs": [
        {
          "name": "",
          "type": "string"
        }
      ],
      "payable": false,
      "stateMutability": "view",
      "type": "function"
    },
    {
      "constant": false,
      "inputs": [],
      "name": "kill",
      "outputs": [],
      "payable": false,
      "stateMutability": "nonpayable",
      "type": "function"
    },
    {
      "constant": true,
      "inputs": [],
      "name": "getLongitude",
      "outputs": [
        {
          "name": "",
          "type": "bytes32"
        }
      ],
      "payable": false,
      "stateMutability": "view",
      "type": "function"
    },
    {
      "constant": false,
      "inputs": [
        {
          "name": "latitude",
          "type": "bytes32"
        },
        {
          "name": "longitude",
          "type": "bytes32"
        },
        {
          "name": "geohash",
          "type": "string"
        }
      ],
      "name": "setLocation",
      "outputs": [
        {
          "name": "",
          "type": "bool"
        }
      ],
      "payable": false,
      "stateMutability": "nonpayable",
      "type": "function"
    },
    {
      "constant": true,
      "inputs": [],
      "name": "getLatitude",
      "outputs": [
        {
          "name": "",
          "type": "bytes32"
        }
      ],
      "payable": false,
      "stateMutability": "view",
      "type": "function"
    },
    {
      "constant": true,
      "inputs": [
        {
          "name": "geohash",
          "type": "string"
        }
      ],
      "name": "getUsers",
      "outputs": [
        {
          "components": [
            {
              "name": "latitude",
              "type": "bytes32"
            },
            {
              "name": "longitude",
              "type": "bytes32"
            },
            {
              "name": "geohash",
              "type": "string"
            },
            {
              "name": "user",
              "type": "address"
            }
          ],
          "name": "",
          "type": "tuple[]"
        }
      ],
      "payable": false,
      "stateMutability": "view",
      "type": "function"
    },
    {
      "constant": true,
      "inputs": [],
      "name": "getLocation",
      "outputs": [
        {
          "name": "",
          "type": "bytes32"
        },
        {
          "name": "",
          "type": "bytes32"
        },
        {
          "name": "",
          "type": "string"
        }
      ],
      "payable": false,
      "stateMutability": "view",
      "type": "function"
    },
    {
      "inputs": [],
      "payable": false,
      "stateMutability": "nonpayable",
      "type": "constructor"
    }
  ],
  "bytecode": "0x6060604052341561000f57600080fd5b336000806101000a81548173ffffffffffffffffffffffffffffffffffffffff021916908373ffffffffffffffffffffffffffffffffffffffff16021790555061118b8061005e6000396000f300606060405260043610610083576000357c0100000000000000000000000000000000000000000000000000000000900463ffffffff1680630b8df0ba1461008857806341c0e1b51461011657806355b72f381461012b57806391e2f8b71461015c578063ae7b6bd9146101eb578063bf02c9fc1461021c578063ce2ce3fc146102c9575b600080fd5b341561009357600080fd5b61009b610375565b6040518080602001828103825283818151815260200191508051906020019080838360005b838110156100db5780820151818401526020810190506100c0565b50505050905090810190601f1680156101085780820380516001836020036101000a031916815260200191505b509250505060405180910390f35b341561012157600080fd5b61012961045d565b005b341561013657600080fd5b61013e6104f2565b60405180826000191660001916815260200191505060405180910390f35b341561016757600080fd5b6101d16004808035600019169060200190919080356000191690602001909190803590602001908201803590602001908080601f0160208091040260200160405190810160405280939291908181526020018383808284378201915050505050509190505061053c565b604051808215151515815260200191505060405180910390f35b34156101f657600080fd5b6101fe610bf0565b60405180826000191660001916815260200191505060405180910390f35b341561022757600080fd5b610277600480803590602001908201803590602001908080601f01602080910402602001604051908101604052809392919081815260200183838082843782019150505050505091905050610c3a565b60405180806020018281038252838181518152602001915080516000925b818410156102b85782849060200190602002015181526020019260010192610295565b925050509250505060405180910390f35b34156102d457600080fd5b6102dc610e27565b604051808460001916600019168152602001836000191660001916815260200180602001828103825283818151815260200191508051906020019080838360005b8381101561033857808201518184015260208101905061031d565b50505050905090810190601f1680156103655780820380516001836020036101000a031916815260200191505b5094505050505060405180910390f35b61037d610f2b565b600160003373ffffffffffffffffffffffffffffffffffffffff1673ffffffffffffffffffffffffffffffffffffffff1681526020019081526020016000206002018054600181600116156101000203166002900480601f0160208091040260200160405190810160405280929190818152602001828054600181600116156101000203166002900480156104535780601f1061042857610100808354040283529160200191610453565b820191906000526020600020905b81548152906001019060200180831161043657829003601f168201915b5050505050905090565b3373ffffffffffffffffffffffffffffffffffffffff166000809054906101000a900473ffffffffffffffffffffffffffffffffffffffff1673ffffffffffffffffffffffffffffffffffffffff161415156104b857600080fd5b6000809054906101000a900473ffffffffffffffffffffffffffffffffffffffff1673ffffffffffffffffffffffffffffffffffffffff16ff5b6000600160003373ffffffffffffffffffffffffffffffffffffffff1673ffffffffffffffffffffffffffffffffffffffff16815260200190815260200160002060010154905090565b600080600080600160003373ffffffffffffffffffffffffffffffffffffffff1673ffffffffffffffffffffffffffffffffffffffff16815260200190815260200160002092506002856040518082805190602001908083835b6020831015156105bb5780518252602082019150602081019050602083039250610596565b6001836020036101000a0380198251168184511680821785525050505050509050019150509081526020016040518091039020915073__StringUtils___________________________6346bdca9a846002016000604051602001526040518263ffffffff167c01000000000000000000000000000000000000000000000000000000000281526004018080602001806020018381038352848181546001816001161561010002031660029004815260200191508054600181600116156101000203166002900480156106cf5780601f106106a4576101008083540402835291602001916106cf565b820191906000526020600020905b8154815290600101906020018083116106b257829003601f168201915b5050838103825260008152602001602001935050505060206040518083038186803b15156106fc57600080fd5b6102c65a03f4151561070d57600080fd5b505050604051805190501580156108a1575073__StringUtils___________________________6346bdca9a84600201876000604051602001526040518363ffffffff167c01000000000000000000000000000000000000000000000000000000000281526004018080602001806020018381038352858181546001816001161561010002031660029004815260200191508054600181600116156101000203166002900480156107ff5780601f106107d4576101008083540402835291602001916107ff565b820191906000526020600020905b8154815290600101906020018083116107e257829003601f168201915b5050838103825284818151815260200191508051906020019080838360005b8381101561083957808201518184015260208101905061081e565b50505050905090810190601f1680156108665780820380516001836020036101000a031916815260200191505b5094505050505060206040518083038186803b151561088457600080fd5b6102c65a03f4151561089557600080fd5b50505060405180519050155b1561099f57600090505b818054905081101561099e573373ffffffffffffffffffffffffffffffffffffffff1682828154811015156108dc57fe5b906000526020600020906004020160030160009054906101000a900473ffffffffffffffffffffffffffffffffffffffff1673ffffffffffffffffffffffffffffffffffffffff16141561099157818181548110151561093857fe5b906000526020600020906004020160008082016000905560018201600090556002820160006109679190610f3f565b6003820160006101000a81549073ffffffffffffffffffffffffffffffffffffffff021916905550505b80806001019150506108ab565b5b8683600001816000191690555085836001018160001916905550848360020190805190602001906109d1929190610f87565b50338360030160006101000a81548173ffffffffffffffffffffffffffffffffffffffff021916908373ffffffffffffffffffffffffffffffffffffffff160217905550818054806001018281610a289190611007565b91600052602060002090600402016000859091909150600082015481600001906000191690556001820154816001019060001916905560028201816002019080546001816001161561010002031660029004610a85929190611039565b506003820160009054906101000a900473ffffffffffffffffffffffffffffffffffffffff168160030160006101000a81548173ffffffffffffffffffffffffffffffffffffffff021916908373ffffffffffffffffffffffffffffffffffffffff16021790555050505082600160003373ffffffffffffffffffffffffffffffffffffffff1673ffffffffffffffffffffffffffffffffffffffff168152602001908152602001600020600082015481600001906000191690556001820154816001019060001916905560028201816002019080546001816001161561010002031660029004610b77929190611039565b506003820160009054906101000a900473ffffffffffffffffffffffffffffffffffffffff168160030160006101000a81548173ffffffffffffffffffffffffffffffffffffffff021916908373ffffffffffffffffffffffffffffffffffffffff160217905550905050600193505050509392505050565b6000600160003373ffffffffffffffffffffffffffffffffffffffff1673ffffffffffffffffffffffffffffffffffffffff16815260200190815260200160002060000154905090565b610c426110c0565b6002826040518082805190602001908083835b602083101515610c7a5780518252602082019150602081019050602083039250610c55565b6001836020036101000a0380198251168184511680821785525050505050509050019150509081526020016040518091039020805480602002602001604051908101604052809291908181526020016000905b82821015610e1c578382906000526020600020906004020160806040519081016040529081600082015460001916600019168152602001600182015460001916600019168152602001600282018054600181600116156101000203166002900480601f016020809104026020016040519081016040528092919081815260200182805460018160011615610100020316600290048015610dae5780601f10610d8357610100808354040283529160200191610dae565b820191906000526020600020905b815481529060010190602001808311610d9157829003601f168201915b505050505081526020016003820160009054906101000a900473ffffffffffffffffffffffffffffffffffffffff1673ffffffffffffffffffffffffffffffffffffffff1673ffffffffffffffffffffffffffffffffffffffff168152505081526020019060010190610ccd565b505050509050919050565b600080610e32610f2b565b6000600160003373ffffffffffffffffffffffffffffffffffffffff1673ffffffffffffffffffffffffffffffffffffffff16815260200190815260200160002090508060000154816001015482600201808054600181600116156101000203166002900480601f016020809104026020016040519081016040528092919081815260200182805460018160011615610100020316600290048015610f185780601f10610eed57610100808354040283529160200191610f18565b820191906000526020600020905b815481529060010190602001808311610efb57829003601f168201915b5050505050905093509350935050909192565b602060405190810160405280600081525090565b50805460018160011615610100020316600290046000825580601f10610f655750610f84565b601f016020900490600052602060002090810190610f8391906110d4565b5b50565b828054600181600116156101000203166002900490600052602060002090601f016020900481019282601f10610fc857805160ff1916838001178555610ff6565b82800160010185558215610ff6579182015b82811115610ff5578251825591602001919060010190610fda565b5b50905061100391906110d4565b5090565b8154818355818115116110345760040281600402836000526020600020918201910161103391906110f9565b5b505050565b828054600181600116156101000203166002900490600052602060002090601f016020900481019282601f1061107257805485556110af565b828001600101855582156110af57600052602060002091601f016020900482015b828111156110ae578254825591600101919060010190611093565b5b5090506110bc91906110d4565b5090565b602060405190810160405280600081525090565b6110f691905b808211156110f25760008160009055506001016110da565b5090565b90565b61115c91905b808211156111585760008082016000905560018201600090556002820160006111289190610f3f565b6003820160006101000a81549073ffffffffffffffffffffffffffffffffffffffff0219169055506004016110ff565b5090565b905600a165627a7a72305820f91cf9dc9f7c0f95d11670106d810212c1acecfa16e1c0ff5316d5581f0ad6670029",
  "source": "pragma solidity ^0.4.17;\n\nimport './stringUtils.sol';\n\ncontract UserLocation {\n\n    struct LocationUser {\n    bytes32 latitude;\n    bytes32 longitude;\n    string geohash;\n    address user;\n    }\n\n    address owner;\n\n    mapping (address => LocationUser) locations;\n\n    mapping (string => LocationUser[]) geohashUsers;\n\n    function UserLocation() public {\n        owner = msg.sender;\n    }\n\n    function setLocation(bytes32 latitude, bytes32 longitude, string geohash) public returns (bool) {\n        LocationUser storage userLocation = locations[msg.sender];\n        // If the user location has been tracked but the geohash changed\n        LocationUser[] storage users = geohashUsers[geohash];\n        if (!StringUtils.equal(userLocation.geohash, \"\")\n            && !StringUtils.equal(userLocation.geohash, geohash)) {\n            for (uint i = 0; i < users.length; i++) {\n                if (users[i].user == msg.sender) {\n                    delete users[i];\n                }\n            }\n        }\n\n        userLocation.latitude = latitude;\n        userLocation.longitude = longitude;\n        userLocation.geohash = geohash;\n        userLocation.user = msg.sender;\n        users.push(userLocation);\n        locations[msg.sender] = userLocation;\n        return true;\n    }\n\n    function getGeohash() public constant returns (string) {\n         return locations[msg.sender].geohash;\n    }\n\n    function getLatitude() public constant returns (bytes32) {\n        return locations[msg.sender].latitude;\n    }\n\n    function getLongitude() public constant returns (bytes32) {\n        return locations[msg.sender].longitude;\n    }\n\n    function getLocation() public constant returns (bytes32, bytes32, string) {\n        LocationUser l = locations[msg.sender];\n        return (l.latitude, l.longitude, l.geohash);\n    }\n\n    function getUsers(string geohash) public constant returns (LocationUser[]) {\n        return geohashUsers[geohash];\n    }\n\n    function kill() public {\n        require(owner == msg.sender);\n        selfdestruct(owner);\n    }\n}\n",
  "sourcePath": "/Users/tillkolter/work/me/haello/contracts/UserLocation.sol",
  "compiler": {
    "name": "solc",
    "version": "0.4.18+commit.9cf6e910.Emscripten.clang"
  },
  "schemaVersion": "1.0.1",
  "updatedAt": "2017-12-05T09:15:30.771Z"
}