{
  "contractName": "UserLocation",
  "abi": [
    {
      "constant": false,
      "inputs": [
        {
          "name": "contractAddress",
          "type": "address"
        }
      ],
      "name": "setSpendingOffer",
      "outputs": [
        {
          "name": "",
          "type": "bool"
        }
      ],
      "payable": false,
      "stateMutability": "nonpayable",
      "type": "function"
    },
    {
      "constant": false,
      "inputs": [
        {
          "name": "latitude",
          "type": "bytes32"
        },
        {
          "name": "longitude",
          "type": "bytes32"
        },
        {
          "name": "geohash",
          "type": "bytes32"
        }
      ],
      "name": "setLocation",
      "outputs": [
        {
          "name": "",
          "type": "bool"
        }
      ],
      "payable": false,
      "stateMutability": "nonpayable",
      "type": "function"
    },
    {
      "constant": false,
      "inputs": [],
      "name": "kill",
      "outputs": [],
      "payable": false,
      "stateMutability": "nonpayable",
      "type": "function"
    },
    {
      "constant": true,
      "inputs": [
        {
          "name": "user",
          "type": "address"
        }
      ],
      "name": "getUserLocation",
      "outputs": [
        {
          "name": "",
          "type": "bytes32"
        },
        {
          "name": "",
          "type": "bytes32"
        },
        {
          "name": "",
          "type": "bytes32"
        }
      ],
      "payable": false,
      "stateMutability": "view",
      "type": "function"
    },
    {
      "constant": true,
      "inputs": [
        {
          "name": "geohash",
          "type": "bytes32"
        }
      ],
      "name": "getUsers",
      "outputs": [
        {
          "name": "",
          "type": "address[]"
        }
      ],
      "payable": false,
      "stateMutability": "view",
      "type": "function"
    },
    {
      "constant": false,
      "inputs": [],
      "name": "deleteLocation",
      "outputs": [
        {
          "name": "",
          "type": "uint256"
        }
      ],
      "payable": false,
      "stateMutability": "nonpayable",
      "type": "function"
    },
    {
      "constant": true,
      "inputs": [
        {
          "name": "_owner",
          "type": "address"
        }
      ],
      "name": "getSpendingOffer",
      "outputs": [
        {
          "name": "",
          "type": "address"
        }
      ],
      "payable": false,
      "stateMutability": "view",
      "type": "function"
    },
    {
      "constant": true,
      "inputs": [],
      "name": "owner",
      "outputs": [
        {
          "name": "",
          "type": "address"
        }
      ],
      "payable": false,
      "stateMutability": "view",
      "type": "function"
    },
    {
      "constant": true,
      "inputs": [
        {
          "name": "_owner",
          "type": "address"
        }
      ],
      "name": "isSpending",
      "outputs": [
        {
          "name": "",
          "type": "bool"
        }
      ],
      "payable": false,
      "stateMutability": "view",
      "type": "function"
    },
    {
      "constant": true,
      "inputs": [],
      "name": "getLocation",
      "outputs": [
        {
          "name": "",
          "type": "bytes32"
        },
        {
          "name": "",
          "type": "bytes32"
        },
        {
          "name": "",
          "type": "bytes32"
        }
      ],
      "payable": false,
      "stateMutability": "view",
      "type": "function"
    },
    {
      "constant": true,
      "inputs": [
        {
          "name": "userAddress",
          "type": "address"
        }
      ],
      "name": "hasLocation",
      "outputs": [
        {
          "name": "",
          "type": "bool"
        }
      ],
      "payable": false,
      "stateMutability": "view",
      "type": "function"
    },
    {
      "inputs": [],
      "payable": false,
      "stateMutability": "nonpayable",
      "type": "constructor"
    },
    {
      "anonymous": false,
      "inputs": [
        {
          "indexed": true,
          "name": "userAddress",
          "type": "address"
        },
        {
          "indexed": false,
          "name": "lat",
          "type": "bytes32"
        },
        {
          "indexed": false,
          "name": "lon",
          "type": "bytes32"
        },
        {
          "indexed": false,
          "name": "geohash",
          "type": "bytes32"
        }
      ],
      "name": "LogNewLocation",
      "type": "event"
    },
    {
      "anonymous": false,
      "inputs": [
        {
          "indexed": true,
          "name": "userAddress",
          "type": "address"
        },
        {
          "indexed": false,
          "name": "index",
          "type": "uint256"
        },
        {
          "indexed": false,
          "name": "size",
          "type": "uint256"
        }
      ],
      "name": "LogDeleteLocation",
      "type": "event"
    }
  ],
  "bytecode": "0x6060604052341561000f57600080fd5b336000806101000a81548173ffffffffffffffffffffffffffffffffffffffff021916908373ffffffffffffffffffffffffffffffffffffffff1602179055506112788061005e6000396000f3006060604052600436106100af576000357c0100000000000000000000000000000000000000000000000000000000900463ffffffff1680630f722081146100b457806333c8a15a1461010557806341c0e1b51461015e5780634a3a9d25146101735780634ccea526146101e657806381d4e8a7146102625780638542a3801461028b5780638da5cb5b14610304578063a327e22f14610359578063ce2ce3fc146103aa578063d83624d2146103f9575b600080fd5b34156100bf57600080fd5b6100eb600480803573ffffffffffffffffffffffffffffffffffffffff1690602001909190505061044a565b604051808215151515815260200191505060405180910390f35b341561011057600080fd5b61014460048080356000191690602001909190803560001916906020019091908035600019169060200190919050506105e3565b604051808215151515815260200191505060405180910390f35b341561016957600080fd5b6101716108ed565b005b341561017e57600080fd5b6101aa600480803573ffffffffffffffffffffffffffffffffffffffff16906020019091905050610982565b60405180846000191660001916815260200183600019166000191681526020018260001916600019168152602001935050505060405180910390f35b34156101f157600080fd5b61020b6004808035600019169060200190919050506109fa565b6040518080602001828103825283818151815260200191508051906020019060200280838360005b8381101561024e578082015181840152602081019050610233565b505050509050019250505060405180910390f35b341561026d57600080fd5b610275610aa9565b6040518082815260200191505060405180910390f35b341561029657600080fd5b6102c2600480803573ffffffffffffffffffffffffffffffffffffffff16906020019091905050610cea565b604051808273ffffffffffffffffffffffffffffffffffffffff1673ffffffffffffffffffffffffffffffffffffffff16815260200191505060405180910390f35b341561030f57600080fd5b610317610d84565b604051808273ffffffffffffffffffffffffffffffffffffffff1673ffffffffffffffffffffffffffffffffffffffff16815260200191505060405180910390f35b341561036457600080fd5b610390600480803573ffffffffffffffffffffffffffffffffffffffff16906020019091905050610da9565b604051808215151515815260200191505060405180910390f35b34156103b557600080fd5b6103bd610ed6565b60405180846000191660001916815260200183600019166000191681526020018260001916600019168152602001935050505060405180910390f35b341561040457600080fd5b610430600480803573ffffffffffffffffffffffffffffffffffffffff16906020019091905050610f38565b604051808215151515815260200191505060405180910390f35b60008060009054906101000a900473ffffffffffffffffffffffffffffffffffffffff1673ffffffffffffffffffffffffffffffffffffffff163373ffffffffffffffffffffffffffffffffffffffff161415156104a757600080fd5b600380548060010182816104bb91906111bb565b9160005260206000209001600084909190916101000a81548173ffffffffffffffffffffffffffffffffffffffff021916908373ffffffffffffffffffffffffffffffffffffffff16021790555050600160038054905003600160003373ffffffffffffffffffffffffffffffffffffffff1673ffffffffffffffffffffffffffffffffffffffff1681526020019081526020016000206006018190555081600160003373ffffffffffffffffffffffffffffffffffffffff1673ffffffffffffffffffffffffffffffffffffffff16815260200190815260200160002060050160006101000a81548173ffffffffffffffffffffffffffffffffffffffff021916908373ffffffffffffffffffffffffffffffffffffffff16021790555060019050919050565b60008084600160003373ffffffffffffffffffffffffffffffffffffffff1673ffffffffffffffffffffffffffffffffffffffff168152602001908152602001600020600001816000191690555083600160003373ffffffffffffffffffffffffffffffffffffffff1673ffffffffffffffffffffffffffffffffffffffff168152602001908152602001600020600101816000191690555082600160003373ffffffffffffffffffffffffffffffffffffffff1673ffffffffffffffffffffffffffffffffffffffff168152602001908152602001600020600201816000191690555033600160003373ffffffffffffffffffffffffffffffffffffffff1673ffffffffffffffffffffffffffffffffffffffff16815260200190815260200160002060030160006101000a81548173ffffffffffffffffffffffffffffffffffffffff021916908373ffffffffffffffffffffffffffffffffffffffff160217905550610751836110b9565b9050806004600085600019166000191681526020019081526020016000208054905014156107a85760046000846000191660001916815260200190815260200160002080548091906001016107a691906111e7565b505b33600460008560001916600019168152602001908152602001600020828154811015156107d157fe5b906000526020600020900160006101000a81548173ffffffffffffffffffffffffffffffffffffffff021916908373ffffffffffffffffffffffffffffffffffffffff16021790555080600160003373ffffffffffffffffffffffffffffffffffffffff1673ffffffffffffffffffffffffffffffffffffffff1681526020019081526020016000206004018190555061086a836110f4565b503373ffffffffffffffffffffffffffffffffffffffff167f74e7e59505e409282564c67a518b67a7321c0f229f18aadf4f6b26983170542286868660405180846000191660001916815260200183600019166000191681526020018260001916600019168152602001935050505060405180910390a260019150509392505050565b3373ffffffffffffffffffffffffffffffffffffffff166000809054906101000a900473ffffffffffffffffffffffffffffffffffffffff1673ffffffffffffffffffffffffffffffffffffffff1614151561094857600080fd5b6000809054906101000a900473ffffffffffffffffffffffffffffffffffffffff1673ffffffffffffffffffffffffffffffffffffffff16ff5b60008060008061099185610f38565b151561099c57600080fd5b600160008673ffffffffffffffffffffffffffffffffffffffff1673ffffffffffffffffffffffffffffffffffffffff1681526020019081526020016000209050806000015481600101548260020154935093509350509193909250565b610a02611213565b600460008360001916600019168152602001908152602001600020805480602002602001604051908101604052809291908181526020018280548015610a9d57602002820191906000526020600020905b8160009054906101000a900473ffffffffffffffffffffffffffffffffffffffff1673ffffffffffffffffffffffffffffffffffffffff1681526020019060010190808311610a53575b50505050509050919050565b6000806000806000610aba33610f38565b1515610ac557600080fd5b600160003373ffffffffffffffffffffffffffffffffffffffff1673ffffffffffffffffffffffffffffffffffffffff168152602001908152602001600020600401549350600160003373ffffffffffffffffffffffffffffffffffffffff1673ffffffffffffffffffffffffffffffffffffffff16815260200190815260200160002060020154925060046000846000191660001916815260200190815260200160002060016004600086600019166000191681526020019081526020016000208054905003815481101515610b9857fe5b906000526020600020900160009054906101000a900473ffffffffffffffffffffffffffffffffffffffff1691508160046000856000191660001916815260200190815260200160002085815481101515610bef57fe5b906000526020600020900160006101000a81548173ffffffffffffffffffffffffffffffffffffffff021916908373ffffffffffffffffffffffffffffffffffffffff16021790555083600160008473ffffffffffffffffffffffffffffffffffffffff1673ffffffffffffffffffffffffffffffffffffffff16815260200190815260200160002060040181905550610c888361115c565b90503373ffffffffffffffffffffffffffffffffffffffff167fd5ab16bd8250f330d9235249b51723fe83277c9b8fc6898198116b262777c1898583604051808381526020018281526020019250505060405180910390a28394505050505090565b6000610cf582610da9565b1515610d0057600080fd5b6003600160008473ffffffffffffffffffffffffffffffffffffffff1673ffffffffffffffffffffffffffffffffffffffff16815260200190815260200160002060060154815481101515610d5157fe5b906000526020600020900160009054906101000a900473ffffffffffffffffffffffffffffffffffffffff169050919050565b6000809054906101000a900473ffffffffffffffffffffffffffffffffffffffff1681565b6000806003805490501415610dc15760009050610ed1565b600160008373ffffffffffffffffffffffffffffffffffffffff1673ffffffffffffffffffffffffffffffffffffffff16815260200190815260200160002060050160009054906101000a900473ffffffffffffffffffffffffffffffffffffffff1673ffffffffffffffffffffffffffffffffffffffff166003600160008573ffffffffffffffffffffffffffffffffffffffff1673ffffffffffffffffffffffffffffffffffffffff16815260200190815260200160002060060154815481101515610e8b57fe5b906000526020600020900160009054906101000a900473ffffffffffffffffffffffffffffffffffffffff1673ffffffffffffffffffffffffffffffffffffffff161490505b919050565b600080600080600160003373ffffffffffffffffffffffffffffffffffffffff1673ffffffffffffffffffffffffffffffffffffffff168152602001908152602001600020905080600001548160010154826002015493509350935050909192565b60008060046000600160008673ffffffffffffffffffffffffffffffffffffffff1673ffffffffffffffffffffffffffffffffffffffff1681526020019081526020016000206002015460001916600019168152602001908152602001600020805490501415610fab57600090506110b4565b8173ffffffffffffffffffffffffffffffffffffffff1660046000600160008673ffffffffffffffffffffffffffffffffffffffff1673ffffffffffffffffffffffffffffffffffffffff1681526020019081526020016000206002015460001916600019168152602001908152602001600020600160008573ffffffffffffffffffffffffffffffffffffffff1673ffffffffffffffffffffffffffffffffffffffff1681526020019081526020016000206004015481548110151561106e57fe5b906000526020600020900160009054906101000a900473ffffffffffffffffffffffffffffffffffffffff1673ffffffffffffffffffffffffffffffffffffffff161490505b919050565b60008060056000846000191660001916815260200190815260200160002054905060008114156110e857600190505b60018103915050919050565b60008060056000846000191660001916815260200190815260200160002054905060008114156111275760029050611130565b80806001019150505b806005600085600019166000191681526020019081526020016000208190555060018103915050919050565b60008060056000846000191660001916815260200190815260200160002054905060018111151561118c57600080fd5b600181036005600085600019166000191681526020019081526020016000208190555060018103915050919050565b8154818355818115116111e2578183600052602060002091820191016111e19190611227565b5b505050565b81548183558181151161120e5781836000526020600020918201910161120d9190611227565b5b505050565b602060405190810160405280600081525090565b61124991905b8082111561124557600081600090555060010161122d565b5090565b905600a165627a7a723058209c2a6cb64b1802e43678bcb940a50fc98e3e2f3b244638809a35ed0af91012120029",
  "source": "pragma solidity ^0.4.18;\n\n\ncontract UserLocation {\n\n    struct LocationUser {\n    bytes32 latitude;\n    bytes32 longitude;\n    bytes32 geohash;\n    address user;\n    uint index;\n    address spendingContract;\n    uint contractIndex;\n    }\n\n    struct CheersItem {\n    address contractAddress;\n    uint index;\n    }\n\n    address public owner;\n\n    mapping (address => LocationUser) private locations;\n\n    mapping (address => CheersItem) private cheersContracts;\n    address[] cheersIndex;\n\n    mapping (bytes32 => address[]) private geohashUsers;\n\n    mapping (bytes32 => uint) private populationSizes;\n\n\n    event LogNewLocation(address indexed userAddress, bytes32 lat, bytes32 lon, bytes32 geohash);\n\n    event LogDeleteLocation(address indexed userAddress, uint index, uint size);\n\n    function UserLocation() public {\n        owner = msg.sender;\n    }\n\n    function hasLocation(address userAddress) public constant returns (bool) {\n        if (geohashUsers[locations[userAddress].geohash].length == 0) return false;\n        return (geohashUsers[locations[userAddress].geohash][locations[userAddress].index] == userAddress);\n    }\n\n    function getPopulationSize(bytes32 geohash) private returns (uint) {\n        uint size = populationSizes[geohash];\n        if (size == 0) {\n            size = 1;\n        }\n        return size - 1;\n    }\n\n    function incrementPopulationSize(bytes32 geohash) private returns (uint) {\n        uint size = populationSizes[geohash];\n        if (size == 0) {\n            size = 2;\n        }\n        else {\n            size++;\n        }\n        populationSizes[geohash] = size;\n        return size - 1;\n    }\n\n    function decrementPopulationSize(bytes32 geohash) private returns (uint) {\n        uint size = populationSizes[geohash];\n        require(size > 1);\n        populationSizes[geohash] = size - 1;\n        return size - 1;\n    }\n\n    function setLocation(bytes32 latitude, bytes32 longitude, bytes32 geohash) public returns (bool) {\n        locations[msg.sender].latitude = latitude;\n        locations[msg.sender].longitude = longitude;\n        locations[msg.sender].geohash = geohash;\n        locations[msg.sender].user = msg.sender;\n\n        uint size = getPopulationSize(geohash);\n        if (geohashUsers[geohash].length == size) {\n            geohashUsers[geohash].length++;\n        }\n\n        geohashUsers[geohash][size] = msg.sender;\n        locations[msg.sender].index = size;\n        incrementPopulationSize(geohash);\n        LogNewLocation(msg.sender, latitude, longitude, geohash);\n        return true;\n    }\n\n    function deleteLocation() public returns (uint) {\n        require(hasLocation(msg.sender));\n        uint rowToDelete = locations[msg.sender].index;\n        bytes32 geohash = locations[msg.sender].geohash;\n        address keyToMove = geohashUsers[geohash][geohashUsers[geohash].length - 1];\n        geohashUsers[geohash][rowToDelete] = keyToMove;\n        locations[keyToMove].index = rowToDelete;\n\n        uint newSize = decrementPopulationSize(geohash);\n        LogDeleteLocation(msg.sender, rowToDelete, newSize);\n        return rowToDelete;\n    }\n\n    function getLocation() public constant returns (bytes32, bytes32, bytes32) {\n        LocationUser storage l = locations[msg.sender];\n        return (l.latitude, l.longitude, l.geohash);\n    }\n\n    function getUserLocation(address user) public constant returns (bytes32, bytes32, bytes32) {\n        require(hasLocation(user));\n        LocationUser storage l = locations[user];\n        return (l.latitude, l.longitude, l.geohash);\n    }\n\n    function isSpending(address _owner) public constant returns (bool) {\n        if (cheersIndex.length == 0) return false;\n        return cheersIndex[locations[_owner].contractIndex] == locations[_owner].spendingContract;\n    }\n\n    function getSpendingOffer(address _owner) public constant returns (address) {\n        require(isSpending(_owner));\n        return cheersIndex[locations[_owner].contractIndex];\n    }\n\n    function setSpendingOffer(address contractAddress) public returns (bool){\n        require(msg.sender == owner);\n        cheersIndex.push(contractAddress);\n        locations[msg.sender].contractIndex = cheersIndex.length - 1;\n        locations[msg.sender].spendingContract = contractAddress;\n        return true;\n    }\n\n    function getUsers(bytes32 geohash) public constant returns (address[]) {\n        return geohashUsers[geohash];\n    }\n\n    function kill() public {\n        require(owner == msg.sender);\n        selfdestruct(owner);\n    }\n}\n",
  "sourcePath": "/Users/tillkolter/work/me/haello/contracts/UserLocation.sol",
  "compiler": {
    "name": "solc",
    "version": "0.4.18+commit.9cf6e910.Emscripten.clang"
  },
  "schemaVersion": "1.0.1",
  "updatedAt": "2017-12-08T12:22:09.408Z"
}