{
  "contractName": "UserLocation",
  "abi": [
    {
      "constant": false,
      "inputs": [
        {
          "name": "latitude",
          "type": "bytes32"
        },
        {
          "name": "longitude",
          "type": "bytes32"
        },
        {
          "name": "geohash",
          "type": "bytes32"
        }
      ],
      "name": "setLocation",
      "outputs": [
        {
          "name": "",
          "type": "bool"
        }
      ],
      "payable": false,
      "stateMutability": "nonpayable",
      "type": "function"
    },
    {
      "constant": false,
      "inputs": [],
      "name": "kill",
      "outputs": [],
      "payable": false,
      "stateMutability": "nonpayable",
      "type": "function"
    },
    {
      "constant": true,
      "inputs": [
        {
          "name": "user",
          "type": "address"
        }
      ],
      "name": "getUserLocation",
      "outputs": [
        {
          "name": "",
          "type": "bytes32"
        },
        {
          "name": "",
          "type": "bytes32"
        },
        {
          "name": "",
          "type": "bytes32"
        }
      ],
      "payable": false,
      "stateMutability": "view",
      "type": "function"
    },
    {
      "constant": true,
      "inputs": [
        {
          "name": "geohash",
          "type": "bytes32"
        }
      ],
      "name": "getUsers",
      "outputs": [
        {
          "name": "",
          "type": "address[]",
          "components": [
            {
              "name": "first",
              "type": "uint80"
            },
            {
              "name": "last",
              "type": "uint80"
            },
            {
              "name": "count",
              "type": "uint80"
            },
            {
              "components": [
                {
                  "name": "prev",
                  "type": "uint80"
                },
                {
                  "name": "next",
                  "type": "uint80"
                },
                {
                  "name": "data",
                  "type": "address"
                }
              ],
              "name": "items",
              "type": "tuple[]"
            }
          ]
        }
      ],
      "payable": false,
      "stateMutability": "view",
      "type": "function"
    },
    {
      "constant": false,
      "inputs": [],
      "name": "deleteLocation",
      "outputs": [
        {
          "name": "",
          "type": "uint256"
        }
      ],
      "payable": false,
      "stateMutability": "nonpayable",
      "type": "function"
    },
    {
      "constant": true,
      "inputs": [],
      "name": "getLocation",
      "outputs": [
        {
          "name": "",
          "type": "bytes32"
        },
        {
          "name": "",
          "type": "bytes32"
        },
        {
          "name": "",
          "type": "bytes32"
        }
      ],
      "payable": false,
      "stateMutability": "view",
      "type": "function"
    },
    {
      "constant": true,
      "inputs": [
        {
          "name": "userAddress",
          "type": "address"
        }
      ],
      "name": "hasLocation",
      "outputs": [
        {
          "name": "",
          "type": "bool"
        }
      ],
      "payable": false,
      "stateMutability": "view",
      "type": "function"
    },
    {
      "inputs": [
        {
          "indexed": true,
          "name": "userAddress",
          "type": "address"
        },
        {
          "indexed": false,
          "name": "lat",
          "type": "bytes32"
        },
        {
          "indexed": false,
          "name": "lon",
          "type": "bytes32"
        },
        {
          "indexed": false,
          "name": "geohash",
          "type": "bytes32"
        }
      ],
      "payable": false,
      "stateMutability": "nonpayable",
      "type": "constructor",
      "anonymous": false,
      "name": "LogNewLocation"
    },
    {
      "anonymous": false,
      "inputs": [
        {
          "indexed": true,
          "name": "userAddress",
          "type": "address"
        },
        {
          "indexed": false,
          "name": "lat",
          "type": "bytes32"
        },
        {
          "indexed": false,
          "name": "lon",
          "type": "bytes32"
        },
        {
          "indexed": false,
          "name": "geohash",
          "type": "bytes32"
        }
      ],
      "name": "LogNewLocation",
      "type": "event"
    },
    {
      "anonymous": false,
      "inputs": [
        {
          "indexed": true,
          "name": "userAddress",
          "type": "address"
        },
        {
          "indexed": false,
          "name": "index",
          "type": "uint256"
        },
        {
          "indexed": false,
          "name": "size",
          "type": "uint256"
        }
      ],
      "name": "LogDeleteLocation",
      "type": "event"
    }
  ],
  "bytecode": "0x6060604052341561000f57600080fd5b60008054600160a060020a033316600160a060020a03199091161790556107138061003b6000396000f3006060604052600436106100825763ffffffff7c010000000000000000000000000000000000000000000000000000000060003504166333c8a15a811461008757806341c0e1b5146100b75780634a3a9d25146100cc5780634ccea5261461010f57806381d4e8a714610178578063ce2ce3fc1461019d578063d83624d2146101b0575b600080fd5b341561009257600080fd5b6100a36004356024356044356101cf565b604051901515815260200160405180910390f35b34156100c257600080fd5b6100ca61032b565b005b34156100d757600080fd5b6100eb600160a060020a0360043516610354565b60405192835260208301919091526040808301919091526060909101905180910390f35b341561011a57600080fd5b610125600435610381565b60405160208082528190810183818151815260200191508051906020019060200280838360005b8381101561016457808201518382015260200161014c565b505050509050019250505060405180910390f35b341561018357600080fd5b61018b6103fc565b60405190815260200160405180910390f35b34156101a857600080fd5b6100eb610534565b34156101bb57600080fd5b6100a3600160a060020a0360043516610562565b600160a060020a0333166000818152600160208190526040822086815590810185905560028101849055600301805473ffffffffffffffffffffffffffffffffffffffff191690921790915580610225836105f2565b60008481526002602052604090205490915081141561025e57600083815260026020526040902080549061025c906001830161068b565b505b600083815260026020526040902080543391908390811061027b57fe5b6000918252602080832091909101805473ffffffffffffffffffffffffffffffffffffffff1916600160a060020a039485161790553390921681526001909152604090206004018190556102ce83610616565b5033600160a060020a03167f74e7e59505e409282564c67a518b67a7321c0f229f18aadf4f6b26983170542286868660405192835260208301919091526040808301919091526060909101905180910390a2506001949350505050565b60005433600160a060020a0390811691161461034657600080fd5b600054600160a060020a0316ff5b600160a060020a031660009081526001602081905260409091208054918101546002909101549192909190565b6103896106b4565b6000828152600260209081526040918290208054909290918281020190519081016040528092919081815260200182805480156103ef57602002820191906000526020600020905b8154600160a060020a031681526001909101906020018083116103d1575b505050505090505b919050565b600080600080600061040d33610562565b151561041857600080fd5b600160a060020a033316600090815260016020908152604080832060048101546002918201548086529190935292208054919650919450600019810190811061045d57fe5b6000918252602080832090910154858352600290915260409091208054600160a060020a03909216935083918690811061049357fe5b6000918252602080832091909101805473ffffffffffffffffffffffffffffffffffffffff1916600160a060020a0394851617905591841681526001909152604090206004018490556104e583610652565b905033600160a060020a03167fd5ab16bd8250f330d9235249b51723fe83277c9b8fc6898198116b262777c189858360405191825260208201526040908101905180910390a250919392505050565b600160a060020a03331660009081526001602081905260409091208054918101546002820154909150909192565b600160a060020a038116600090815260016020908152604080832060029081015484529091528120541515610599575060006103f7565b600160a060020a0382166000818152600160208181526040808420600281810154865283529084209385905291905260040154815481106105d657fe5b600091825260209091200154600160a060020a03161492915050565b60008181526003602052604081205480151561060c575060015b6000190192915050565b60008181526003602052604081205480151561063457506002610638565b6001015b600092835260036020526040909220829055506000190190565b6000818152600360205260408120546001811161066e57600080fd5b600092835260036020526040909220600019909201918290555090565b8154818355818115116106af576000838152602090206106af9181019083016106c6565b505050565b60206040519081016040526000815290565b6106e491905b808211156106e057600081556001016106cc565b5090565b905600a165627a7a72305820b5fa52cb5d769e04b6ead8977a281ded60d846d11c2827ffb3ccff5c49e65dcb0029",
  "source": "pragma solidity ^0.4.18;\n\ncontract UserLocation {\n\n    struct LocationUser {\n    bytes32 latitude;\n    bytes32 longitude;\n    bytes32 geohash;\n    address user;\n    uint index;\n    }\n\n    address owner;\n\n    mapping (address => LocationUser) private locations;\n\n    mapping (bytes32 => address[]) private geohashUsers;\n    mapping (bytes32 => uint) private populationSizes;\n\n    event LogNewLocation(address indexed userAddress, bytes32 lat, bytes32 lon, bytes32 geohash);\n    event LogDeleteLocation(address indexed userAddress, uint index, uint size);\n\n    function UserLocation() public {\n        owner = msg.sender;\n    }\n\n    function hasLocation(address userAddress) public constant returns(bool) {\n        if(geohashUsers[locations[userAddress].geohash].length == 0) return false;\n        return (geohashUsers[locations[userAddress].geohash][locations[userAddress].index] == userAddress);\n    }\n\n    function getPopulationSize(bytes32 geohash) private returns (uint) {\n        uint size = populationSizes[geohash];\n        if (size == 0) {\n            size = 1;\n        }\n        return size - 1;\n    }\n\n    function incrementPopulationSize(bytes32 geohash) private returns (uint) {\n        uint size = populationSizes[geohash];\n        if (size == 0) {\n            size = 2;\n        } else {\n            size++;\n        }\n        populationSizes[geohash] = size;\n        return size - 1;\n    }\n\n    function decrementPopulationSize(bytes32 geohash) private returns (uint) {\n        uint size = populationSizes[geohash];\n        require(size > 1);\n        populationSizes[geohash] = size - 1;\n        return size - 1;\n    }\n\n    function setLocation(bytes32 latitude, bytes32 longitude, bytes32 geohash) public returns (bool) {\n//        if (hasLocation(msg.sender)) {\n//            deleteLocation();\n//        }\n\n        locations[msg.sender].latitude = latitude;\n        locations[msg.sender].longitude = longitude;\n        locations[msg.sender].geohash = geohash;\n        locations[msg.sender].user = msg.sender;\n\n        uint size = getPopulationSize(geohash);\n        if (geohashUsers[geohash].length == size) {\n            geohashUsers[geohash].length++;\n        }\n\n        geohashUsers[geohash][size] = msg.sender;\n        locations[msg.sender].index = size;\n        incrementPopulationSize(geohash);\n        LogNewLocation(msg.sender, latitude, longitude, geohash);\n        return true;\n    }\n\n    function deleteLocation() public returns (uint) {\n        require(hasLocation(msg.sender));\n        uint rowToDelete = locations[msg.sender].index;\n        bytes32 geohash = locations[msg.sender].geohash;\n        address keyToMove = geohashUsers[geohash][geohashUsers[geohash].length-1];\n        geohashUsers[geohash][rowToDelete] = keyToMove;\n        locations[keyToMove].index = rowToDelete;\n\n        uint newSize = decrementPopulationSize(geohash);\n        LogDeleteLocation(msg.sender, rowToDelete, newSize);\n        return rowToDelete;\n    }\n\n    function getLocation() public constant returns (bytes32, bytes32, bytes32) {\n        LocationUser storage l = locations[msg.sender];\n        return (l.latitude, l.longitude, l.geohash);\n    }\n\n    function getUserLocation(address user) public constant returns (bytes32, bytes32, bytes32) {\n        LocationUser storage l = locations[user];\n        return (l.latitude, l.longitude, l.geohash);\n    }\n\n    function getUsers(bytes32 geohash) public constant returns (address[]) {\n        return geohashUsers[geohash];\n    }\n\n    function kill() public {\n        require(owner == msg.sender);\n        selfdestruct(owner);\n    }\n}\n",
  "sourcePath": "/Users/tillkolter/work/me/haello/contracts/UserLocation.sol",
  "compiler": {
    "name": "solc",
    "version": "0.4.18+commit.9cf6e910.Emscripten.clang"
  },
  "schemaVersion": "1.0.1",
  "updatedAt": "2017-12-07T01:12:05.006Z"
}