{
  "contractName": "UserLocation",
  "abi": [
    {
      "constant": false,
      "inputs": [
        {
          "name": "contractAddress",
          "type": "address"
        }
      ],
      "name": "setSpendingOffer",
      "outputs": [
        {
          "name": "",
          "type": "bool"
        }
      ],
      "payable": false,
      "stateMutability": "nonpayable",
      "type": "function"
    },
    {
      "constant": false,
      "inputs": [
        {
          "name": "latitude",
          "type": "bytes32"
        },
        {
          "name": "longitude",
          "type": "bytes32"
        },
        {
          "name": "geohash",
          "type": "bytes32"
        }
      ],
      "name": "setLocation",
      "outputs": [
        {
          "name": "",
          "type": "bytes32"
        },
        {
          "name": "",
          "type": "bytes32"
        },
        {
          "name": "",
          "type": "bytes32"
        }
      ],
      "payable": false,
      "stateMutability": "nonpayable",
      "type": "function"
    },
    {
      "constant": false,
      "inputs": [],
      "name": "kill",
      "outputs": [],
      "payable": false,
      "stateMutability": "nonpayable",
      "type": "function"
    },
    {
      "constant": true,
      "inputs": [
        {
          "name": "user",
          "type": "address"
        }
      ],
      "name": "getUserLocation",
      "outputs": [
        {
          "name": "",
          "type": "bytes32"
        },
        {
          "name": "",
          "type": "bytes32"
        },
        {
          "name": "",
          "type": "bytes32"
        }
      ],
      "payable": false,
      "stateMutability": "view",
      "type": "function"
    },
    {
      "constant": true,
      "inputs": [
        {
          "name": "geohash",
          "type": "bytes32"
        }
      ],
      "name": "getUsers",
      "outputs": [
        {
          "name": "",
          "type": "address[]"
        }
      ],
      "payable": false,
      "stateMutability": "view",
      "type": "function"
    },
    {
      "constant": false,
      "inputs": [],
      "name": "deleteLocation",
      "outputs": [
        {
          "name": "",
          "type": "uint256"
        }
      ],
      "payable": false,
      "stateMutability": "nonpayable",
      "type": "function"
    },
    {
      "constant": true,
      "inputs": [
        {
          "name": "_owner",
          "type": "address"
        }
      ],
      "name": "getSpendingOffer",
      "outputs": [
        {
          "name": "",
          "type": "address"
        }
      ],
      "payable": false,
      "stateMutability": "view",
      "type": "function"
    },
    {
      "constant": false,
      "inputs": [],
      "name": "getOwner",
      "outputs": [
        {
          "name": "",
          "type": "address"
        }
      ],
      "payable": false,
      "stateMutability": "nonpayable",
      "type": "function"
    },
    {
      "constant": true,
      "inputs": [],
      "name": "owner",
      "outputs": [
        {
          "name": "",
          "type": "address"
        }
      ],
      "payable": false,
      "stateMutability": "view",
      "type": "function"
    },
    {
      "constant": true,
      "inputs": [
        {
          "name": "_owner",
          "type": "address"
        }
      ],
      "name": "isSpending",
      "outputs": [
        {
          "name": "",
          "type": "bool"
        }
      ],
      "payable": false,
      "stateMutability": "view",
      "type": "function"
    },
    {
      "constant": true,
      "inputs": [],
      "name": "getLocation",
      "outputs": [
        {
          "name": "",
          "type": "bytes32"
        },
        {
          "name": "",
          "type": "bytes32"
        },
        {
          "name": "",
          "type": "bytes32"
        }
      ],
      "payable": false,
      "stateMutability": "view",
      "type": "function"
    },
    {
      "constant": true,
      "inputs": [
        {
          "name": "userAddress",
          "type": "address"
        }
      ],
      "name": "hasLocation",
      "outputs": [
        {
          "name": "",
          "type": "bool"
        }
      ],
      "payable": false,
      "stateMutability": "view",
      "type": "function"
    },
    {
      "anonymous": false,
      "inputs": [
        {
          "indexed": true,
          "name": "userAddress",
          "type": "address"
        },
        {
          "indexed": false,
          "name": "lat",
          "type": "bytes32"
        },
        {
          "indexed": false,
          "name": "lon",
          "type": "bytes32"
        },
        {
          "indexed": false,
          "name": "geohash",
          "type": "bytes32"
        }
      ],
      "name": "LogNewLocation",
      "type": "event"
    },
    {
      "anonymous": false,
      "inputs": [
        {
          "indexed": true,
          "name": "userAddress",
          "type": "address"
        },
        {
          "indexed": false,
          "name": "index",
          "type": "uint256"
        },
        {
          "indexed": false,
          "name": "size",
          "type": "uint256"
        }
      ],
      "name": "LogDeleteLocation",
      "type": "event"
    }
  ],
  "bytecode": "0x6060604052336000806101000a81548173ffffffffffffffffffffffffffffffffffffffff021916908373ffffffffffffffffffffffffffffffffffffffff16021790555061140c806100536000396000f3006060604052600436106100ba576000357c0100000000000000000000000000000000000000000000000000000000900463ffffffff1680630f722081146100bf57806333c8a15a1461011057806341c0e1b51461018b5780634a3a9d25146101a05780634ccea5261461021357806381d4e8a71461028f5780638542a380146102b8578063893d20e8146103315780638da5cb5b14610386578063a327e22f146103db578063ce2ce3fc1461042c578063d83624d21461047b575b600080fd5b34156100ca57600080fd5b6100f6600480803573ffffffffffffffffffffffffffffffffffffffff169060200190919050506104cc565b604051808215151515815260200191505060405180910390f35b341561011b57600080fd5b61014f600480803560001916906020019091908035600019169060200190919080356000191690602001909190505061061f565b60405180846000191660001916815260200183600019166000191681526020018260001916600019168152602001935050505060405180910390f35b341561019657600080fd5b61019e610933565b005b34156101ab57600080fd5b6101d7600480803573ffffffffffffffffffffffffffffffffffffffff169060200190919050506109c8565b60405180846000191660001916815260200183600019166000191681526020018260001916600019168152602001935050505060405180910390f35b341561021e57600080fd5b610238600480803560001916906020019091905050610a40565b6040518080602001828103825283818151815260200191508051906020019060200280838360005b8381101561027b578082015181840152602081019050610260565b505050509050019250505060405180910390f35b341561029a57600080fd5b6102a2610aef565b6040518082815260200191505060405180910390f35b34156102c357600080fd5b6102ef600480803573ffffffffffffffffffffffffffffffffffffffff16906020019091905050610d30565b604051808273ffffffffffffffffffffffffffffffffffffffff1673ffffffffffffffffffffffffffffffffffffffff16815260200191505060405180910390f35b341561033c57600080fd5b610344610dca565b604051808273ffffffffffffffffffffffffffffffffffffffff1673ffffffffffffffffffffffffffffffffffffffff16815260200191505060405180910390f35b341561039157600080fd5b610399610df3565b604051808273ffffffffffffffffffffffffffffffffffffffff1673ffffffffffffffffffffffffffffffffffffffff16815260200191505060405180910390f35b34156103e657600080fd5b610412600480803573ffffffffffffffffffffffffffffffffffffffff16906020019091905050610e18565b604051808215151515815260200191505060405180910390f35b341561043757600080fd5b61043f61106a565b60405180846000191660001916815260200183600019166000191681526020018260001916600019168152602001935050505060405180910390f35b341561048657600080fd5b6104b2600480803573ffffffffffffffffffffffffffffffffffffffff169060200190919050506110cc565b604051808215151515815260200191505060405180910390f35b60006104d732610e18565b1515156104e357600080fd5b600380548060010182816104f7919061134f565b9160005260206000209001600084909190916101000a81548173ffffffffffffffffffffffffffffffffffffffff021916908373ffffffffffffffffffffffffffffffffffffffff16021790555050600160038054905003600160003273ffffffffffffffffffffffffffffffffffffffff1673ffffffffffffffffffffffffffffffffffffffff1681526020019081526020016000206006018190555081600160003273ffffffffffffffffffffffffffffffffffffffff1673ffffffffffffffffffffffffffffffffffffffff16815260200190815260200160002060050160006101000a81548173ffffffffffffffffffffffffffffffffffffffff021916908373ffffffffffffffffffffffffffffffffffffffff16021790555060019050919050565b60008060008086600160003373ffffffffffffffffffffffffffffffffffffffff1673ffffffffffffffffffffffffffffffffffffffff168152602001908152602001600020600001816000191690555085600160003373ffffffffffffffffffffffffffffffffffffffff1673ffffffffffffffffffffffffffffffffffffffff168152602001908152602001600020600101816000191690555084600160003373ffffffffffffffffffffffffffffffffffffffff1673ffffffffffffffffffffffffffffffffffffffff168152602001908152602001600020600201816000191690555033600160003373ffffffffffffffffffffffffffffffffffffffff1673ffffffffffffffffffffffffffffffffffffffff16815260200190815260200160002060030160006101000a81548173ffffffffffffffffffffffffffffffffffffffff021916908373ffffffffffffffffffffffffffffffffffffffff1602179055506107908561124d565b9050806004600087600019166000191681526020019081526020016000208054905014156107e75760046000866000191660001916815260200190815260200160002080548091906001016107e5919061137b565b505b336004600087600019166000191681526020019081526020016000208281548110151561081057fe5b906000526020600020900160006101000a81548173ffffffffffffffffffffffffffffffffffffffff021916908373ffffffffffffffffffffffffffffffffffffffff16021790555080600160003373ffffffffffffffffffffffffffffffffffffffff1673ffffffffffffffffffffffffffffffffffffffff168152602001908152602001600020600401819055506108a985611288565b503373ffffffffffffffffffffffffffffffffffffffff167f74e7e59505e409282564c67a518b67a7321c0f229f18aadf4f6b26983170542288888860405180846000191660001916815260200183600019166000191681526020018260001916600019168152602001935050505060405180910390a28686869350935093505093509350939050565b3373ffffffffffffffffffffffffffffffffffffffff166000809054906101000a900473ffffffffffffffffffffffffffffffffffffffff1673ffffffffffffffffffffffffffffffffffffffff1614151561098e57600080fd5b6000809054906101000a900473ffffffffffffffffffffffffffffffffffffffff1673ffffffffffffffffffffffffffffffffffffffff16ff5b6000806000806109d7856110cc565b15156109e257600080fd5b600160008673ffffffffffffffffffffffffffffffffffffffff1673ffffffffffffffffffffffffffffffffffffffff1681526020019081526020016000209050806000015481600101548260020154935093509350509193909250565b610a486113a7565b600460008360001916600019168152602001908152602001600020805480602002602001604051908101604052809291908181526020018280548015610ae357602002820191906000526020600020905b8160009054906101000a900473ffffffffffffffffffffffffffffffffffffffff1673ffffffffffffffffffffffffffffffffffffffff1681526020019060010190808311610a99575b50505050509050919050565b6000806000806000610b00336110cc565b1515610b0b57600080fd5b600160003373ffffffffffffffffffffffffffffffffffffffff1673ffffffffffffffffffffffffffffffffffffffff168152602001908152602001600020600401549350600160003373ffffffffffffffffffffffffffffffffffffffff1673ffffffffffffffffffffffffffffffffffffffff16815260200190815260200160002060020154925060046000846000191660001916815260200190815260200160002060016004600086600019166000191681526020019081526020016000208054905003815481101515610bde57fe5b906000526020600020900160009054906101000a900473ffffffffffffffffffffffffffffffffffffffff1691508160046000856000191660001916815260200190815260200160002085815481101515610c3557fe5b906000526020600020900160006101000a81548173ffffffffffffffffffffffffffffffffffffffff021916908373ffffffffffffffffffffffffffffffffffffffff16021790555083600160008473ffffffffffffffffffffffffffffffffffffffff1673ffffffffffffffffffffffffffffffffffffffff16815260200190815260200160002060040181905550610cce836112f0565b90503373ffffffffffffffffffffffffffffffffffffffff167fd5ab16bd8250f330d9235249b51723fe83277c9b8fc6898198116b262777c1898583604051808381526020018281526020019250505060405180910390a28394505050505090565b6000610d3b82610e18565b1515610d4657600080fd5b6003600160008473ffffffffffffffffffffffffffffffffffffffff1673ffffffffffffffffffffffffffffffffffffffff16815260200190815260200160002060060154815481101515610d9757fe5b906000526020600020900160009054906101000a900473ffffffffffffffffffffffffffffffffffffffff169050919050565b60008060009054906101000a900473ffffffffffffffffffffffffffffffffffffffff16905090565b6000809054906101000a900473ffffffffffffffffffffffffffffffffffffffff1681565b60008060006003805490501415610e325760009150611064565b600160008473ffffffffffffffffffffffffffffffffffffffff1673ffffffffffffffffffffffffffffffffffffffff16815260200190815260200160002060050160009054906101000a900473ffffffffffffffffffffffffffffffffffffffff1673ffffffffffffffffffffffffffffffffffffffff166003600160008673ffffffffffffffffffffffffffffffffffffffff1673ffffffffffffffffffffffffffffffffffffffff16815260200190815260200160002060060154815481101515610efc57fe5b906000526020600020900160009054906101000a900473ffffffffffffffffffffffffffffffffffffffff1673ffffffffffffffffffffffffffffffffffffffff1614905080801561106157508273ffffffffffffffffffffffffffffffffffffffff16600160008573ffffffffffffffffffffffffffffffffffffffff1673ffffffffffffffffffffffffffffffffffffffff16815260200190815260200160002060050160009054906101000a900473ffffffffffffffffffffffffffffffffffffffff1673ffffffffffffffffffffffffffffffffffffffff16638da5cb5b6000604051602001526040518163ffffffff167c0100000000000000000000000000000000000000000000000000000000028152600401602060405180830381600087803b151561102e57600080fd5b6102c65a03f1151561103f57600080fd5b5050506040518051905073ffffffffffffffffffffffffffffffffffffffff16145b91505b50919050565b600080600080600160003373ffffffffffffffffffffffffffffffffffffffff1673ffffffffffffffffffffffffffffffffffffffff168152602001908152602001600020905080600001548160010154826002015493509350935050909192565b60008060046000600160008673ffffffffffffffffffffffffffffffffffffffff1673ffffffffffffffffffffffffffffffffffffffff168152602001908152602001600020600201546000191660001916815260200190815260200160002080549050141561113f5760009050611248565b8173ffffffffffffffffffffffffffffffffffffffff1660046000600160008673ffffffffffffffffffffffffffffffffffffffff1673ffffffffffffffffffffffffffffffffffffffff1681526020019081526020016000206002015460001916600019168152602001908152602001600020600160008573ffffffffffffffffffffffffffffffffffffffff1673ffffffffffffffffffffffffffffffffffffffff1681526020019081526020016000206004015481548110151561120257fe5b906000526020600020900160009054906101000a900473ffffffffffffffffffffffffffffffffffffffff1673ffffffffffffffffffffffffffffffffffffffff161490505b919050565b600080600560008460001916600019168152602001908152602001600020549050600081141561127c57600190505b60018103915050919050565b60008060056000846000191660001916815260200190815260200160002054905060008114156112bb57600290506112c4565b80806001019150505b806005600085600019166000191681526020019081526020016000208190555060018103915050919050565b60008060056000846000191660001916815260200190815260200160002054905060018111151561132057600080fd5b600181036005600085600019166000191681526020019081526020016000208190555060018103915050919050565b8154818355818115116113765781836000526020600020918201910161137591906113bb565b5b505050565b8154818355818115116113a2578183600052602060002091820191016113a191906113bb565b5b505050565b602060405190810160405280600081525090565b6113dd91905b808211156113d95760008160009055506001016113c1565b5090565b905600a165627a7a72305820f6af5ef0e0bc22b8747a9ed60f34ee8acabd8d9884fe885130f25ee73a43675b0029",
  "source": "pragma solidity ^0.4.18;\n\nimport \"./Owned.sol\";\n\ncontract UserLocation is Owned {\n\n    struct LocationUser {\n    bytes32 latitude;\n    bytes32 longitude;\n    bytes32 geohash;\n    address user;\n    uint index;\n    address spendingContract;\n    uint contractIndex;\n    }\n\n    struct CheersItem {\n    address contractAddress;\n    uint index;\n    }\n\n    mapping (address => LocationUser) private locations;\n\n    mapping (address => CheersItem) private cheersContracts;\n    address[] cheersIndex;\n\n    mapping (bytes32 => address[]) private geohashUsers;\n\n    mapping (bytes32 => uint) private populationSizes;\n\n\n    event LogNewLocation(address indexed userAddress, bytes32 lat, bytes32 lon, bytes32 geohash);\n\n    event LogDeleteLocation(address indexed userAddress, uint index, uint size);\n\n    function hasLocation(address userAddress) public constant returns (bool) {\n        if (geohashUsers[locations[userAddress].geohash].length == 0) return false;\n        return (geohashUsers[locations[userAddress].geohash][locations[userAddress].index] == userAddress);\n    }\n\n    function getPopulationSize(bytes32 geohash) private returns (uint) {\n        uint size = populationSizes[geohash];\n        if (size == 0) {\n            size = 1;\n        }\n        return size - 1;\n    }\n\n    function incrementPopulationSize(bytes32 geohash) private returns (uint) {\n        uint size = populationSizes[geohash];\n        if (size == 0) {\n            size = 2;\n        }\n        else {\n            size++;\n        }\n        populationSizes[geohash] = size;\n        return size - 1;\n    }\n\n    function decrementPopulationSize(bytes32 geohash) private returns (uint) {\n        uint size = populationSizes[geohash];\n        require(size > 1);\n        populationSizes[geohash] = size - 1;\n        return size - 1;\n    }\n\n    function setLocation(bytes32 latitude, bytes32 longitude, bytes32 geohash) public returns (bytes32, bytes32, bytes32) {\n        locations[msg.sender].latitude = latitude;\n        locations[msg.sender].longitude = longitude;\n        locations[msg.sender].geohash = geohash;\n        locations[msg.sender].user = msg.sender;\n\n        uint size = getPopulationSize(geohash);\n        if (geohashUsers[geohash].length == size) {\n            geohashUsers[geohash].length++;\n        }\n\n        geohashUsers[geohash][size] = msg.sender;\n        locations[msg.sender].index = size;\n        incrementPopulationSize(geohash);\n        LogNewLocation(msg.sender, latitude, longitude, geohash);\n        return (latitude, longitude, geohash);\n    }\n\n    function deleteLocation() public returns (uint) {\n        require(hasLocation(msg.sender));\n        uint rowToDelete = locations[msg.sender].index;\n        bytes32 geohash = locations[msg.sender].geohash;\n        address keyToMove = geohashUsers[geohash][geohashUsers[geohash].length - 1];\n        geohashUsers[geohash][rowToDelete] = keyToMove;\n        locations[keyToMove].index = rowToDelete;\n\n        uint newSize = decrementPopulationSize(geohash);\n        LogDeleteLocation(msg.sender, rowToDelete, newSize);\n        return rowToDelete;\n    }\n\n    function getLocation() public constant returns (bytes32, bytes32, bytes32) {\n        LocationUser storage l = locations[msg.sender];\n        return (l.latitude, l.longitude, l.geohash);\n    }\n\n    function getUserLocation(address user) public constant returns (bytes32, bytes32, bytes32) {\n        require(hasLocation(user));\n        LocationUser storage l = locations[user];\n        return (l.latitude, l.longitude, l.geohash);\n    }\n\n    function isSpending(address _owner) public constant returns (bool) {\n        if (cheersIndex.length == 0) return false;\n        bool isSpending = cheersIndex[locations[_owner].contractIndex] == locations[_owner].spendingContract;\n        return isSpending && CheersContract(locations[_owner].spendingContract).owner() == _owner;\n    }\n\n    function getSpendingOffer(address _owner) public constant returns (address) {\n        require(isSpending(_owner));\n        return cheersIndex[locations[_owner].contractIndex];\n    }\n\n    function setSpendingOffer(address contractAddress) public returns (bool){\n        require(!isSpending(tx.origin));\n        cheersIndex.push(contractAddress);\n        locations[tx.origin].contractIndex = cheersIndex.length - 1;\n        locations[tx.origin].spendingContract = contractAddress;\n        return true;\n    }\n\n    function getUsers(bytes32 geohash) public constant returns (address[]) {\n        return geohashUsers[geohash];\n    }\n\n    function kill() public {\n        require(owner == msg.sender);\n        selfdestruct(owner);\n    }\n}\n\n\ncontract CheersContract {\n\n    enum ActivityType {Drinks, Tickets, Food}\n\n    address[] candidates;\n\n    address[] profiteers;\n\n    address[] cashedOut;\n\n    mapping (address => int) userStates;\n\n    ActivityType public activity;\n\n    uint public maxCandidates;\n\n    uint public firstContactBudget;\n\n    address userContract;\n\n    address public owner;\n\n    function CheersContract(uint _maxCandidates, uint _firstContactReward, ActivityType _activity, address _userContract) public payable {\n        // msg.value should be more than first contact reward times the candidates maximum\n        require(_maxCandidates == 0 || msg.value > _firstContactReward * _maxCandidates);\n\n        owner = tx.origin;\n        maxCandidates = _maxCandidates;\n        firstContactBudget = _firstContactReward * _maxCandidates;\n        activity = _activity;\n        userContract = _userContract;\n        UserLocation(userContract).setSpendingOffer(address(this));\n    }\n\n    function setUserContract(address contractAddress) public {\n        userContract = contractAddress;\n    }\n\n    function getCompensation() constant public returns (uint) {\n        return this.balance - firstContactBudget;\n    }\n\n    function isOpen() constant public returns (bool) {\n        return candidates.length + profiteers.length < maxCandidates;\n    }\n\n    function addAmount() public payable {\n        require(msg.sender == owner);\n    }\n\n    function setActivity(ActivityType _activity) public {\n        require(msg.sender == owner);\n        activity = _activity;\n    }\n\n    function addCandidate(address candidate) public returns (bool) {\n        require(candidate != owner);\n        require(isOpen());\n        require(userStates[candidate] == 0);\n\n        candidates.push(candidate);\n        userStates[candidate] = 1;\n        candidate.transfer(firstContactBudget / maxCandidates);\n        return true;\n    }\n\n    function addProfiteer(address _profiteer) public returns (bool) {\n        require(msg.sender == owner);\n        require(isOpen() || userStates[_profiteer] == 1);\n        require(userStates[_profiteer] < 2);\n\n        profiteers.push(_profiteer);\n        userStates[_profiteer] = 2;\n        return true;\n    }\n\n    function cashOut() public returns (bool) {\n        require(msg.sender == owner);\n        uint profiteersLength = profiteers.length;\n        for (uint i = 0; i < profiteers.length; i++) {\n            profiteers[i].transfer(getCompensation() / maxCandidates);\n            cashedOut.push(profiteers[i]);\n            userStates[profiteers[i]] = 3;\n            delete profiteers[i];\n        }\n        maxCandidates -= profiteersLength;\n        return true;\n    }\n\n    function isCandidate(address userAddress) public constant returns (bool) {\n        require(msg.sender == owner || msg.sender == userAddress);\n        return userStates[userAddress] == 1;\n    }\n\n    function isCashedOut(address userAddress) public constant returns (bool) {\n        require(msg.sender == owner || msg.sender == userAddress);\n        return userStates[userAddress] == 3;\n    }\n\n    function isProfiteer(address userAddress) public constant returns (bool) {\n        require(msg.sender == owner || msg.sender == userAddress);\n        return userStates[userAddress] == 2;\n    }\n\n    function getCandidates() public constant returns (address[]) {\n        require(msg.sender == owner);\n        return candidates;\n    }\n\n    function getProfiteers() public constant returns (address[]) {\n        require(msg.sender == owner);\n        return profiteers;\n    }\n\n    function getCashedOuts() public constant returns (address[]) {\n        require(msg.sender == owner);\n        return cashedOut;\n    }\n\n    function getCandidatesCount() public constant returns (uint) {\n        return candidates.length;\n    }\n\n    function kill() public {\n        require(msg.sender == owner);\n        selfdestruct(owner);\n    }\n}\n",
  "sourcePath": "/Users/tillkolter/work/me/haello/contracts/UserLocation.sol",
  "compiler": {
    "name": "solc",
    "version": "0.4.18+commit.9cf6e910.Emscripten.clang"
  },
  "schemaVersion": "1.0.1",
  "updatedAt": "2017-12-14T11:09:31.010Z"
}